:100000000C9494290C94C5290C94C5290C94C529E9
:100010000C94C5290C94C5290C94C5290C940CEE9C
:100020000C94C5290C94C5290C94C5290C94A5F4ED
:100030000C94C5290C94C5290C94C5290D941182E2
:100040000C94C5290C94C5290C94C5290C94C52978
:100050000C94C5290C94C5290C94C5290C94C52968
:100060000C94C5290C94A9EE0C94D8EE0C94C529D7
:100070000C94C5290C94C5290C94C5290C94C52948
:100080000C94C5290C94C5290C94C5290C94C52938
:100090000C9413EF0C9442EF0C94C5290C9433F399
:1000A0000C94C5290D943E820C94C5290C94C52945
:1000B0000C94C5290C94C5290D946B820C94C52908
:1000C0000C94C5290C94C5290C9431F90C947DEF3E
:1000D0000C94ACEF0C94C5290C94E7EF0C9416F03B
:1000E0000C94C529962C9B2CA02CA52CAA2CAF2CAB
:1000F000B42CB92CCE2CCE2CBE2CC32CC82CAE5874
:10010000B258B058AE58AE58B058B058B058B558AC
:10011000B558B258B258B258B558B558B258B45884
:100120003C59395931592B5939592E592E593E5963
:100130003E593C593C593C593E593E593C591C5D2D
:10014000015D385D3F5BC35B085CB95CBE5C485DCC
:10015000485D025A3C5B3C5B485D485D3C5B1B6212
:1001600032623A6223622B624262996275626C6209
:1001700063627E628762906251625A621462B66202
:10018000A262CA62D362DC62E562EB62F362FE6B7A
:10019000336C366C596CA36C2B6BAC6A797D7B7DB0
:1001A0007E7D907DAD7D797D327D3983B5823983C9
:1001B000398395823983A4829A822E832E83C682C4
:1001C0002E8314832E832E83298339835E8F718F30
:1001D000768F7E8F838F9F9B888F9F9B9F9B9F9BFC
:1001E0008D8F928F978F12E50BE51BE526E536E59F
:1001F0004BE56BE590E59BE5CAF5CFF5CAF5CAF589
:10020000DDF5DDF5CFF5CFF5DDF5C5F5C5F5EAF59D
:10021000EEF5F2F5F8F50FF60FF6FCF500F60FF631
:1002200006F60AF643F647F64BF651F668F668F618
:1002300055F659F668F65FF663F6ABF6B0F6B5F626
:10024000BAF6D2F6D2F6BFF6C4F6D2F6C9F6CEF6B4
:1002500001F706F70BF710F729F729F715F71AF743
:1002600029F71FF724F77B285D28E3276328E9286F
:100270007F2801280728AB2719295D2993281D29E4
:100280004F297327EF27B9285F2837299B277B271A
:100290004329172881275128612995287D2743283C
:1002A000D1275729772891275F29BF27DD280B28D9
:1002B000A728A728AD28A728A728AD28AD28492812
:1002C0003528232849283528232849283528232854
:1002D000D528CD27CD27D528D528CD27CD27D5285A
:1002E000D528D528D52879296B28D3277927D3274E
:1002F000D32799284529D327D3279D28F7280528D0
:10030000D327D327D327D327D327D327D327D3271D
:10031000D327D327D3270529D327D327D327D327D9
:10032000D327D327D327B9276D29D3272F2975277B
:10033000D32719289128D327D327D327D327C527F5
:10034000032803287F294528F52855299D279F271D
:10035000DF271B297F277F27AB287F2735293529D2
:100360003529352935297F27352935293529352955
:10037000AB28AB28AB28AB28AB28AB28036EDB3609
:100380003D9A9999993DABAAAA2A3E000000803F68
:10039000084AD73B3BCE016E84BCBFFDC12F3D6CEC
:1003A00074319ABD56833DDA3D00C77F11BED9E452
:1003B000BB4C3E916BAAAABE000000803F072C7A7E
:1003C000A5BA6CC590DA3B9365FC8BBC53F810FD65
:1003D0003C5692834DBD879D3AB63DCBC9BF5BBEAF
:1003E00073DA0FC93F05A84CCDB2D44EB93836A93F
:1003F000020C50B9918688083CA6AAAA2ABE000021
:1004000000803F08000000BE922449123EABAAAA19
:100410002ABECDCCCC4C3E00000080BEABAAAAAA1E
:100420003E00000000BF000000803F000000000010
:10043000084178D3BB4387D1133D190E3CC3BD425D
:1004400082AD2B3E68EC8276BED98FE1A93E4C800E
:10045000EFFFBE01C4FF7F3F00000000000664EC18
:100460001B3C04BC163E3BE5B93CC93C37C29E5A16
:100470003D660498083EEA69AAAA3E000000803F53
:100480004D504E47000A41726475506C616E652094
:1004900056322E37360A467265652052414D3A2053
:1004A00025750A00626164206C6F67206E756D624D
:1004B00065720A0064756D70696E6720616C6C0A04
:1004C00000656E61626C650043414D4552410054C8
:1004D00045435300434F4D504153530043555252EF
:1004E000454E5400434D4400494D55004D4F444541
:1004F000004E54554E004354554E00504D00475049
:10050000530041545449545544455F4D45440041BE
:10051000545449545544455F4641535400616C6CF2
:10052000006D697373696E67206C6F6720747970F2
:10053000650A002025530043414D455241002025C6
:100540005300544543530020255300434F4D504121
:100550005353002025530043555252454E5400201A
:10056000255300434D440020255300494D5500209C
:100570002553004D4F444500202553004E54554E01
:1005800000202553004354554E0020255300504D64
:100590000020255300475053002025530041545458
:1005A00049545544455F4D4544002025530041546E
:1005B0005449545544455F46415354006E6F6E652F
:1005C000006C6F677320656E61626C65643A200031
:1005D0000A464143544F52592052455345542063D3
:1005E0006F6D706C657465202D20706C656173652E
:1005F0002072657365742041504D20746F20636FC5
:100600006E74696E7565000A5479706520275927E4
:1006100020616E642068697420456E746572207470
:100620006F20706572666F726D20666163746F72A1
:10063000792072657365742C20616E79206F7468FF
:100640006572206B657920746F2061626F72743AF5
:1006500020004348383A202564207C202564207CF3
:100660002025640A004348373A202564207C202551
:1006700064207C2025640A004348363A2025642003
:100680007C202564207C2025640A004348353A20DC
:100690002564207C202564207C2025640A004348B2
:1006A000343A202564207C202564207C2025640A9F
:1006B000004348333A202564207C202564207C2098
:1006C00025640A004348323A202564207C202564B2
:1006D000207C2025640A004348313A202564207C90
:1006E000202564207C2025640A00526164696F0A19
:1006F000000A4D6F766520616C6C20636F6E7472BA
:100700006F6C7320746F2065616368206578747204
:10071000656D652E2048697420456E74657220747D
:100720006F20736176653A200A000A4E6F2072616D
:1007300064696F3B20436865636B20636F6E6E6511
:1007400063746F72732E000A0A526164696F2053DA
:10075000657475703A0A000A5361766564205365C2
:100760007474696E67730A0A00466C69676874205E
:100770006D6F6465730A00506F732025643A200022
:100780000A4D6F766520524320746F67676C652051
:1007900073776974636820746F2065616368207083
:1007A0006F736974696F6E20746F20656469742C4F
:1007B000206D6F76652061696C65726F6E20737451
:1007C00069636B20746F2073656C656374206D6F53
:1007D0006465732E00416363656C206F66667365A4
:1007E00074733A2025342E32662C2025342E32663E
:1007F0002C2025342E3266097363616C653A2025FE
:10080000342E32662C2025342E32662C2025342EB0
:1008100032660A004779726F206F6666736574737B
:100820003A2025342E32662C2025342E32662C2098
:1008300025342E32660A00494E530A00496E697407
:1008400069616C6973696E67206779726F73000AFA
:100850004F7074696F6E733A5B6F6E2C6F66662CA7
:1008600072657365745D0A007265736574006F6606
:100870006600436F6D7061737320696E697469619E
:100880006C69736174696F6E206661696C6564215F
:10089000006F6E00506172616D65746572206E6FDD
:1008A0007420666F756E643A20272573270A00430B
:1008B000616E6E6F742073657420706172616D6516
:1008C000746572206F6620747970652025642E0A25
:1008D0000056616C7565206F7574206F66207261BB
:1008E0006E676520666F72207479706520494E547A
:1008F00031360A0056616C7565206F7574206F661D
:100900002072616E676520666F7220747970652051
:10091000494E54380A00506172616D206E6F742028
:10092000666F756E643A2025730A00496E76616CB5
:10093000696420636F6D6D616E642E20557361670D
:10094000653A20736574203C6E616D653E203C768F
:10095000616C75653E0A00646F6E650A000A457237
:100960006173696E6720454550524F4D0A000A5425
:100970007970652027592720616E6420686974208A
:10098000456E74657220746F2065726173652061B5
:100990006C6C20776179706F696E7420616E642071
:1009A000706172616D6574657220646174612C2080
:1009B000616E79206F74686572206B657920746F41
:1009C0002061626F72743A20005365747570204D17
:1009D0006F64650A0A494D504F5254414E543A20B3
:1009E000696620796F752068617665206E6F742066
:1009F00070726576696F75736C7920736574207495
:100A00006869732073797374656D2075702C207517
:100A10007365207468650A2772657365742720639F
:100A20006F6D6D616E6420746F20696E69746961A9
:100A30006C697A652074686520454550524F4D2099
:100A4000746F2073656E7369626C6520646566619E
:100A5000756C742076616C7565730A616E642074C0
:100A600068656E207468652027726164696F27204D
:100A7000636F6D6D616E6420746F20636F6E666965
:100A80006775726520666F7220796F75722072616A
:100A900064696F2E0A0A0054657374204D6F646593
:100AA0000A0A00436F6D6D616E64733A0A20206C10
:100AB0006F677320202020202020206C6F67207219
:100AC0006561646261636B2F7365747570206D6F0F
:100AD00064650A2020736574757020202020202012
:100AE000207365747570206D6F64650A20207465CD
:100AF0007374202020202020202074657374206DC2
:100B00006F64650A20207265626F6F742020202058
:100B100020207265626F6F7420746F20666C696745
:100B20006874206D6F64650A0A00494E3A09313ACB
:100B300020256409323A20256409333A20256409C6
:100B4000343A20256409353A20256409363A2025AF
:100B50006409373A20256409383A2025640A004997
:100B60004E20313A20256409323A20256409333A6F
:100B700020256409343A20256409353A2025640982
:100B8000363A20256409373A20256409383A202569
:100B9000640A002C0043483A004D6F6465282575AF
:100BA00029004C6F697465720052544C00415554D1
:100BB0004F00435255495345004642575F42004655
:100BC00042575F41004143524F00547261696E6960
:100BD0006E670053746162696C697A65004369727B
:100BE000636C65004D616E75616C004C4F53206302
:100BF0006175736564206E6F206368616E67652040
:100C0000696E2041504D2E0A005448524F54544CA6
:100C100045204641494C534146452041435449569D
:100C2000415445443A2025642C2000434F4E5452F1
:100C30004F4C204D4F4445204348414E4745443A90
:100C400020005448524F54544C45204348414E478D
:100C50004544202564200A00556E706C756720623B
:100C60006174746572792C207468726F74746C6529
:100C700020696E206E65757472616C2C20747572BB
:100C80006E206F666620726164696F2E0A0052657D
:100C90006C6179206F66660A0052656C6179206F1D
:100CA0006E0A00636F6D6D616E6420233A202564C7
:100CB0002069643A2564206F7074696F6E733A25F9
:100CC000642070313A25642070323A256C642070BB
:100CD000333A256C642070343A256C64200A004C49
:100CE0006F69746572207261646975733A20256456
:100CF0000A0A00486974207261646975733A202594
:100D0000640A00256420776179706F696E74730AD4
:100D100000486F6C6420616C746974756465206F41
:100D2000662025646D0A00486F6C642063757272DA
:100D3000656E7420616C7469747564650A0042653F
:100D400067696E205842656520582D4354552052DE
:100D5000616E676520616E6420525353492054656B
:100D600073743A0A00202530327800253034783AFE
:100D700000506F736974696F6E2025640A00436FB9
:100D80006E74726F6C20434820002E004C61743AE0
:100D900020256C642C204C6F6E20256C642C204127
:100DA0006C743A20256C646D2C2023736174733A43
:100DB0002025640A00723A2534642020703A2534D4
:100DC000642020793A2533642020673D2825352E7C
:100DD00031662025352E31662025352E31662920B5
:100DE00020613D2825352E31662025352E3166209F
:100DF00025352E3166290A00252E3166206D2F7388
:100E00000A0061697273706565643A2000616972F5
:100E100073706565643A2000416C743A2025302E69
:100E200032666D2C205261773A2025662054656D1C
:100E300070657261747572653A20252E31660A00FC
:100E40006E6F74206865616C74687900556E6361BB
:100E50006C696272617465642072656C6174697634
:100E6000652061697270726573737572650A0048F6
:100E7000697420456E74657220746F20657869749A
:100E80002E0A0A002D004D6167206F666673657437
:100E9000733A2025342E34662C2025342E34662CCB
:100EA0002025342E34660A004D6167204465636C4A
:100EB000696E6174696F6E3A2025342E34660A00BB
:100EC0003F3F0048494C00484D43353834330048D3
:100ED0004D43353838334C00436F6D706173733A4E
:100EE000200061626C65640A0064697300656E00CD
:100EF000736176696E67206F6666736574730063ED
:100F00006F6D70617373206E6F74206865616C74AF
:100F100068790048656164696E673A20256C642CC5
:100F20002058595A3A2025642C2025642C20256409
:100F30002C0958595A6F66663A2025362E32662C8F
:100F40002025362E32662C2025362E32660A0043A6
:100F50006F6D7061737320696E697469616C697318
:100F60006174696F6E206661696C65642100436F0E
:100F70006D706173733A20004C6F77204261747416
:100F800065727920252E32665620557365642025BA
:100F90002E3066206D416800526563656976656430
:100FA0002052657175657374202D206A756D7020EF
:100FB000746F20636F6D6D616E642023256900433B
:100FC000616E6E6F74206368616E676520746F2058
:100FD0006E6F6E2D4E617620636D64202575005214
:100FE0006563656976656420526571756573742003
:100FF0002D207265736574206D697373696F6E005F
:101000006661696C656420746F2073657420726119
:101010006C6C7920706F696E74006261642072611B
:101020006C6C7920706F696E7420696E64657800ED
:101030006261642072616C6C7920706F696E7420DB
:101040006D65737361676520636F756E74006261AF
:10105000642072616C6C7920706F696E74206D65AC
:101060007373616765204944006261642066656E40
:10107000636520706F696E74006261642066656EDE
:10108000636520706F696E740066656E63696E6774
:10109000206D7573742062652064697361626C658C
:1010A0006400666C6967687420706C616E2072659C
:1010B00063656976656400666C6967687420706C46
:1010C000616E207570646174652072656A65637411
:1010D000656400556E6B6E6F776E20706172616D26
:1010E0006574657220252E31367300556E6B6E6FF8
:1010F000776E20706172616D6574657220696E64CF
:10110000657820256400636F6D6D616E6420726583
:101110006365697665643A200044656D6F205365A8
:1011200072766F7321007A65726F206169727370D5
:101130006565642063616C696272617465640062F4
:1011400061726F6D657465722063616C6962726152
:1011500074696F6E20636F6D706C657465004361B8
:101160006C6962726174696E67206261726F6D652D
:10117000746572004E4F206169727370656564001A
:10118000426567696E6E696E6720494E53206361E0
:101190006C6962726174696F6E3B20646F206E6F60
:1011A00074206D6F766520706C616E65000A0A2090
:1011B000526561647920746F20464C592E003C734F
:1011C0007461727475705F67726F756E643E2047EC
:1011D000524F554E44205354415254004C6F672097
:1011E000657261736520636F6D706C657465004531
:1011F000726173696E67206C6F677300496E766108
:101200006C69642053455249414C335F4241554417
:10121000006C6F61645F616C6C20746F6F6B202574
:101220006C7575730A00646F6E652E004669726D89
:1012300077617265206368616E67653A20657261E7
:1012400073696E6720454550524F4D2E2E2E0A0071
:10125000496E697469616C6973696E672041504DAC
:101260002E2E2E000A507265737320454E5445523F
:1012700020332074696D657320746F2073746172FC
:101280007420696E74657261637469766520736534
:101290007475700A00436F6D7061737320696E69B5
:1012A0007469616C69736174696F6E206661696CE1
:1012B0006564210045524153494E47204C4F4753E6
:1012C000004E6F2064617461666C617368206361B5
:1012D000726420696E736572746564000A0A496EEF
:1012E00069742041726475506C616E652056322EAF
:1012F00037360A0A467265652052414D3A202575F7
:101300000A004D5347204653204F4646202575007E
:101310004D5347204653204F4E20257500466169A6
:101320006C73616665202D2053686F72742065763A
:10133000656E74206F666600666C69676874206D00
:101340006F6465203D202575004661696C73616698
:1013500065202D2053686F7274206576656E742049
:101360006F6E2C2000547269676765726564204156
:1013700055544F2C20475053737064203D20252E28
:10138000316600426164204C61756E63682041558E
:10139000544F0054696D656F7574204155544F006A
:1013A00041726D6564204155544F2C207861636310
:1013B000656C203D20252E3166206D2F732F732CF8
:1013C0002077616974696E6720252E316620736508
:1013D000630054696D657220496E74657272757030
:1013E000746564204155544F00486F6C64696E67A2
:1013F00020636F7572736520256C64007665726971
:1014000066795F636F6E6469746F6E3A20496E76B9
:10141000616C6964206F72206E6F206375727265F3
:101420006E7420436F6E646974696F6E20636D64BF
:10143000005265616368656420686F6D650076655C
:10144000726966795F6E61763A204C4F4954455215
:101450002074696D6520636F6D706C6574650076CE
:1014600065726966795F6E61763A204C4F495445E2
:1014700052206F726269747320636F6D706C657453
:10148000650050617373656420576179706F696E90
:10149000742023256920646973742025756D0052BA
:1014A00065616368656420576179706F696E742047
:1014B00023256920646973742025756D004C616E65
:1014C0006420436F6D706C657465202D20486F6CCF
:1014D0006420636F7572736520256C6400486F6CBF
:1014E00064696E6720636F7572736520256C640094
:1014F0007665726966795F6E61763A20496E7661CB
:101500006C6964206F72206E6F2063757272656EF5
:1015100074204E617620636D640067656F2D66658B
:101520006E6365207365747570206572726F7200EA
:1015300067656F2D66656E6365206C6F61646564B9
:101540000067656F2D66656E6365207472696767F5
:10155000657265640067656F2D66656E6365204F13
:101560004B0052656C617920746F67676C6500474A
:101570005F44745F6D61783D256C750A0052656C3F
:10158000617920746F67676C650052656C617920C2
:101590006F66660052656C6179206F6E00677073CC
:1015A00020616C743A20256C7500696E697420683E
:1015B0006F6D6500536574207468726F74746C6528
:1015C000202575005365742067726F756E647370A3
:1015D00065656420257500536574206169727370B8
:1015E000656564202575206D2F73007365747469BB
:1015F0006E6720636F6D6D616E6420696E646578DF
:101600003A202569004A756D7020746F205750206C
:1016100025752E204A756D7073206C6566743A20AE
:10162000256400536B697070696E6720696E76611E
:101630006C6964206A756D7020746F202569004A9A
:10164000756D7073206C6566743A2030202D2073A0
:101650006B697070696E6700444F5F5345545F5209
:101660004F49206E6F7420737570706F727465646B
:1016700000457865637574696E6720636F6D6D6191
:101680006E6420494420232569004578656375749C
:10169000696E6720636F6D6D616E6420494420231D
:1016A000256900283229204E6F6E2D4E6176206309
:1016B0006F6D6D616E64204944207570646174655E
:1016C0006420746F20232569206964783D257500A6
:1016D0004E6F6E2D4E617620636F6D6D616E64206E
:1016E0004944207570646174656420746F202325FB
:1016F00069206964783D2575006F7574206F6620D8
:10170000636F6D6D616E647321004E617620636F4F
:101710006D6D616E6420696E6465782075706461BA
:1017200074656420746F20232569005265736574A5
:1017300074696E6720707265765F575000457865F2
:10174000637574696E67206E617620636F6D6D617D
:101750006E64204944202325690052657475726EB9
:10176000696E6720746F20486F6D6500666C6967ED
:101770006874206D6F6465203D20257500466169A1
:101780006C73616665202D204C6F6E6720657665F1
:101790006E74206F6E2C2000746573740070776D0A
:1017A0000000000000000000000000E876726164A4
:1017B000696F000000000000000000007970617394
:1017C0007374687275000000000000094266616968
:1017D0006C73616665000000000000027872656C41
:1017E0006179000000000000000000F231776179AB
:1017F000706F696E7473000000000050537862656A
:101800006500000000000000000000192D656564FF
:10181000756D700000000000000000363F6D6F64C1
:101820006573776974636800000000A04167707396
:1018300000000000000000000000006E31726177BF
:101840006770730000000000000000782D696E735F
:1018500000000000000000000000005137616972C4
:101860007370656564000000000000EC64616972DB
:1018700070726573737572650000003464636F6D18
:101880007061737300000000000000665D6C6F679C
:1018900067696E6700000000000000682D417264F7
:1018A00075506C616E652056322E3736006C6F674E
:1018B0007300000000000000000000073F73657423
:1018C0007570000000000000000000EC3E746573BD
:1018D0007400000000000000000000D13E7265624C
:1018E0006F6F740000000000000000672C68656CDA
:1018F0007000000000000000000000502C736574B0
:1019000075700072657365740000000000000000CF
:10191000007043726164696F000000000000000005
:1019200000627A6D6F6465730000000000000000C3
:10193000009E796C6576656C000000000000000078
:1019400000E565616363656C000000000000000055
:1019500000D74D636F6D706173730000000000006D
:1019600000C44F6465636C696E6174696F6E0000DA
:1019700000B34F73686F77000000000000000000A4
:1019800000B2437365740000000000000000000016
:101990000072506572617365000000000000000075
:1019A00000AC2BF1000400524C4C325352565F50A5
:1019B0000000000000000000F1010400524C4C3215
:1019C0005352565F490000000000000000F102047D
:1019D00000524C4C325352565F440000000000004D
:1019E0000000F1030400524C4C325352565F494DF3
:1019F00041580000000000F20004005054434832F7
:101A00005352565F5000000000000000F201040035
:101A100050544348325352565F49000000000000C2
:101A200000F202040050544348325352565F4400BF
:101A3000000000000000F2030400505443483253F9
:101A400052565F494D415800000000860001004297
:101A50004154545F4D4F4E49544F52000000000016
:101A6000A8000100424154545F564F4C545F504906
:101A70004E00000000A9000100424154545F43554C
:101A800052525F50494E000000008700040042415E
:101A900054545F564F4C545F4D554C5400000088D1
:101AA000000400424154545F414D505F504552562E
:101AB0004F4C54008F000400424154545F414D503C
:101AC0005F4F464653455400008A0003004241548C
:101AD000545F43415041434954590000000080592C
:101AE000464D54000042426E4E5A00000000000075
:101AF0000000000000547970652C4C656E677468B6
:101B00002C4E616D652C466F726D61740000000093
:101B100000000000000000000000000000000000C5
:101B200000000000000000000000000000000000B5
:101B3000000000000081175041524D004E66000029
:101B40000000000000000000000000004E616D6514
:101B50002C56616C7565000000000000000000005C
:101B60000000000000000000000000000000000075
:101B70000000000000000000000000000000000065
:101B8000000000000000000000000000822D47500F
:101B900053000042494842634C4C656545656649BF
:101BA0000000005374617475732C54696D654D5356
:101BB0002C5765656B2C4E536174732C48446F70C1
:101BC0002C4C61742C4C6E672C52656C416C742CDF
:101BD000416C742C5370642C474372732C565A2CEE
:101BE000540000831F494D550000496666666666CD
:101BF0006600000000000000000054696D654D5350
:101C00002C477972582C477972592C4779725A2C83
:101C1000416363582C416363592C4163635A00004C
:101C200000000000000000000000000000000000B4
:101C30000000000000000000000084434D534700F6
:101C4000005A00000000000000000000000000003A
:101C5000004D6573736167650000000000000000BF
:101C60000000000000000000000000000000000074
:101C70000000000000000000000000000000000064
:101C80000000000000000000000000000000000054
:101C9000000A0D41545400004963634300000000F2
:101CA000000000000000000054696D654D532C5287
:101CB0006F6C6C2C50697463682C5961770000005C
:101CC0000000000000000000000000000000000014
:101CD0000000000000000000000000000000000004
:101CE00000000000000000000317504D00000049F4
:101CF0004849424242686868420000000000004CC7
:101D000054696D652C4D4C432C6744742C524E43E2
:101D10006E742C524E426C2C475053636E742C4799
:101D200044782C4744792C47447A2C4932434572F5
:101D3000720000000000000000000000000000042D
:101D400014434D4400004242424242654C4C000064
:101D500000000000000043546F742C434E756D2C3E
:101D60004349642C434F70742C50726D312C416C7C
:101D7000742C4C61742C4C6E670000000000000055
:101D80000000000000000000000000000000000053
:101D9000000000000000091B43414D000049484C71
:101DA0004C6563634300000000000000004750538F
:101DB00054696D652C4750535765656B2C4C6174A5
:101DC0002C4C6E672C416C742C526F6C6C2C5069CF
:101DD0007463682C59617700000000000000000067
:101DE0000000000000000000000000000006055395
:101DF0005452540042420000000000000000000065
:101E00000000000053547970652C43546F74000037
:101E100000000000000000000000000000000000C2
:101E200000000000000000000000000000000000B2
:101E300000000000000000000000000000000000A2
:101E40000000000001174354554E0049636363636B
:101E5000686866000000000000000054696D654D70
:101E6000532C4E6176526F6C6C2C526F6C6C2C4EF6
:101E7000617650697463682C50697463682C546887
:101E8000724F75742C5264724F75742C4163635990
:101E90000000000000000000000000021D4E54552C
:101EA0004E00494349434363636649000000000014
:101EB000000054696D654D532C5961772C5770445F
:101EC0006973742C546172674272672C4E6176425A
:101ED00072672C416C744572722C41727370642C61
:101EE000416C742C47537064434D000000000000A7
:101EF00000000B094D4F444500494D4200000000D1
:101F000000000000000000000054696D654D532C76
:101F10004D6F64652C4D6F64654E756D000000005B
:101F200000000000000000000000000000000000B1
:101F300000000000000000000000000000000000A1
:101F4000000000000000000000051343555252003D
:101F50004968686848660000000000000000000052
:101F600054696D654D532C5468722C566F6C742CEB
:101F7000437572722C5663632C43757272546F747E
:101F80000000000000000000000000000000000051
:101F90000000000000000000000000000000000041
:101FA0000C134D4147000049686868686868000084
:101FB0000000000000000054696D654D532C4D6118
:101FC00067582C4D6167592C4D61675A2C4F6673C9
:101FD000582C4F6673592C4F66735A00000000004E
:101FE00000000000000000000000000000000000F1
:101FF000000000000000000D3754454353004966BF
:1020000066666666666666666666660000005469B1
:102010006D654D532C682C64682C685F64656D2C6D
:1020200064685F64656D2C73705F64656D2C73709C
:102030002C6473702C6974682C6970682C74682C1B
:1020400070682C6473705F64656D000000004C6FF5
:10205000670064756D700000000000000000000063
:102060002934657261736500000000000000000003
:102070001264656E61626C65000000000000000083
:10208000974A64697361626C65000000000000009B
:10209000974A97740100BC0219850100E803DA36FB
:1020A00001000019854201004006DB590100780556
:1020B00030540100AC0DCA6E01004006AA8507002D
:1020C000E80354680100E803F18C0500740E136AFC
:1020D0000500B80BDD5E0500B00474490500B004CE
:1020E000C58B0500480DE9460500E8036783050038
:1020F0008813EC290500E803FE9C0100A40626696C
:102100000100B80B4E330100DC0569690F00DC05E6
:10211000752C05002C01F6840500E8034533010009
:10212000DC05E12901008403413301002C01E8664C
:1021300032003C0FC3830F00E80320463200E8035F
:10214000462F0500B00441300500E80302464F5217
:102150004D41545F56455253494F4E0000000075A3
:102160000F000000000153595349445F53575F5417
:102170005950450000000001770F00000000025395
:10218000595349445F544849534D4156000000009B
:1021900070780F0000803F0253595349445F4D59F6
:1021A000474353000000000000717A0F00007F4396
:1021B0000153455249414C305F42415544000000B3
:1021C0000000747C0F0000E6420153455249414C27
:1021D000335F424155440000000000727D0F000053
:1021E00064420154454C454D5F44454C4159000003
:1021F00000000000737E0F00000000044B46465FA5
:10220000524444524D4958000000000000C97F0F5D
:102210000000003F044B46465F544852325054433E
:10222000480000000000CB870F000000000153545D
:1022300049434B5F4D4958494E4700000000001983
:1022400010100000803F01534B49505F4759524FD7
:102250005F43414C000000002F970F000000000179
:102260004155544F5F4642575F5354454552000015
:102270000030980F0000000004544B4F46465F5456
:1022800048525F4D494E5350440022111000000047
:102290000004544B4F46465F5448525F4D494E41EF
:1022A0004343002315100000000001544B4F4646E5
:1022B0005F5448525F44454C415900002E191000AC
:1022C000000040014C4556454C5F524F4C4C5F4C12
:1022D000494D495400251A100000A040024C414EBF
:1022E000445F50495443485F43440000000017F7DF
:1022F0000F00000000044C414E445F464C415245E3
:102300005F414C540000001BF90F00004040044C9A
:10231000414E445F464C4152455F534543000000E7
:102320001CFD0F00000040014E41565F434F4E54CC
:10233000524F4C4C455200000028950F0000803F42
:1023400004414C545F4D495800000000000000005B
:10235000000083990F0000803F01414C545F4354BB
:10236000524C5F414C4700000000007C9D0F000074
:10237000000002414C545F4F464653455400000054
:102380000000000020D70F0000000001434D445F13
:10239000544F54414C0000000000000000DD9F0F2E
:1023A0000000000001434D445F494E444558000081
:1023B000000000000000DEA00F00000000025750E7
:1023C0005F5241444955530000000000000000DF07
:1023D000A10F0000F0410257505F4D41585F52413C
:1023E000444955530000000031A30F0000000002D3
:1023F00057505F4C4F495445525F524144000000D2
:1024000000E0A50F000070420146454E43455F4184
:102410004354494F4E0000000000E1A70F000000A8
:10242000000146454E43455F544F54414C00000067
:10243000000000E2A80F000000000146454E4345A1
:102440005F4348414E4E454C00000000E3A90F0099
:102450000000000246454E43455F4D494E414C54F5
:102460000000000000E4AA0F000000000246454EF4
:1024700043455F4D4158414C540000000000E5AC1D
:102480000F000000000152414C4C595F544F544121
:102490004C000000000000EEAE0F000000000452EF
:1024A000414C4C595F4C494D49545F4B4D00000025
:1024B00034AF0F0000A0400241525350445F4642E7
:1024C000575F4D494E00000000780E11000010418A
:1024D0000241525350445F4642575F4D41580000FD
:1024E00000007910110000B04101464257425F459B
:1024F0004C45565F524556000000007BB30F00006C
:10250000000001464257425F434C494D425F5241F1
:10251000544500007DB40F00000040015448525F54
:102520004D494E00000000000000000000B50A11F7
:1025300000000000015448525F4D41580000000067
:10254000000000000000B60B110000964201544844
:10255000525F534C4557524154450000000000BDA6
:102560000C110000C842015448525F535550505F4F
:102570004D414E0000000000BEB50F0000000001FC
:102580005448525F504153535F535441420000003E
:1025900000BFB60F00000000015448525F46414999
:1025A0004C534146450000000000B7B70F000080C3
:1025B0003F025448525F46535F56414C5545000018
:1025C000000000B8B80F00806D44015452494D5FBF
:1025D0005448524F54544C4500000000B90D1100AE
:1025E000003442015448524F54544C455F4E5544B8
:1025F00047450000001FBA0F0000803F0146535FAF
:1026000053484F52545F4143544E00000000BABB40
:102610000F000000000446535F53484F52545F546C
:10262000494D454F555400C3BD0F0000C03F014602
:10263000535F4C4F4E475F4143544E000000000033
:10264000BBBC0F000000000446535F4C4F4E475F79
:1026500054494D454F55540000C4C10F0000A041DE
:102660000446535F424154545F564F4C54414745D2
:102670000000C1C60F000000000446535F424154F1
:10268000545F4D4148000000000000C2CA0F000026
:1026900000000146535F4743535F454E41424C00A3
:1026A00000000000BCC50F0000000001464C544D66
:1026B0004F44455F434800000000000000D2CE0FA9
:1026C0000000004101464C544D4F4445310000008C
:1026D000000000000000D3CF0F0000304101464C45
:1026E000544D4F444532000000000000000000D46B
:1026F000D00F0000304101464C544D4F444533004B
:102700000000000000000000D5D10F0000A0400133
:10271000464C544D4F44453400000000000000007A
:1027200000D6D20F0000A04001464C544D4F444506
:1027300035000000000000000000D7D30F000000AB
:102740000001464C544D4F44453600000000000047
:10275000000000D8D40F00000000024C494D5F5229
:102760004F4C4C5F434400000000000098D50F0020
:10277000A08C45024C494D5F50495443485F4D4140
:1027800058000000009912110080BB44024C494DD2
:102790005F50495443485F4D494E000000009A1471
:1027A0001100401CC5024143524F5F524F4C4C5FD9
:1027B000524154450000007ED90F000034430241CD
:1027C00043524F5F50495443485F524154450000C3
:1027D0007FDB0F00003443014143524F5F4C4F43B6
:1027E0004B494E47000000000080DD0F0000000054
:1027F0000447524F554E445F53544545525F414C38
:102800005400328B0F000000000247524F554E44D7
:102810005F53544545525F44505300338F0F0000BF
:10282000B442015452494D5F4155544F00000000DD
:10283000000000000ADE0F0000000001454C455674
:102840004F4E5F4D4958494E47000000000DDF0FC5
:102850000000000001454C45564F4E5F524556451D
:102860005253450000000EE60F0000000001454CE9
:1028700045564F4E5F4348315F5245560000000FAA
:10288000E70F0000000001454C45564F4E5F43489E
:10289000325F52455600000010E80F0000000001B2
:1028A000565441494C5F4F55545055540000000058
:1028B0000027E00F0000000001454C45564F4E5FD9
:1028C0004F55545055540000000029E10F000000FE
:1028D00000044D4958494E475F4741494E000000AA
:1028E0000000002BE20F0000003F025359535F4EDF
:1028F000554D5F52455345545300000002E90F0007
:10290000000000024C4F475F4249544D41534B0079
:1029100000000000000BEB0F00F0FB450152535488
:102920005F5357495443485F43480000000015ED8A
:102930000F00000000015253545F4D495353494F5B
:102940004E5F43480000001AEE0F000000000354E1
:1029500052494D5F41525350445F434D00000000C7
:102960009BEF0F00009644045343414C494E475F90
:10297000535045454400000000CC910F00007041C9
:10298000034D494E5F474E445350445F434D000052
:1029900000009E011000000000025452494D5F509B
:1029A000495443485F4344000000000C05100000F8
:1029B000000003414C545F484F4C445F52544C005C
:1029C000000000009CF30F00401C4602414C545F85
:1029D000484F4C445F464257434D0000007A071071
:1029E00000000000014D41475F454E41424C45000B
:1029F0000000000000008409100000803F01464CE8
:102A000041505F315F504552434E54000000001169
:102A10000A100000000001464C41505F315F5350E6
:102A20004545440000000000120B100000000001AA
:102A3000464C41505F325F504552434E54000000B7
:102A400000130C100000000001464C41505F325F43
:102A500053504545440000000000140D10000000D4
:102A60000001525353495F50494E000000000000DE
:102A7000000000A70E10000080BF01494E564552CD
:102A8000544544464C545F43480000009D0F1000DD
:102A900000000008474E445F0000000000000000F6
:102AA00000000000008D9D0EF13300000843414DF1
:102AB0005F00000000000000000000000000A01601
:102AC00008063700000852454C41595F00000000DD
:102AD000000000000000002D3208DB470000085213
:102AE00043315F0000000000000000000000000013
:102AF000AA1B10754C0000085243325F0000000012
:102B0000000000000000000000AB3810754C000011
:102B1000085243335F000000000000000000000086
:102B20000000AC5510754C0000085243345F0000A3
:102B30000000000000000000000000AD7210754CA5
:102B40000000085243355F00000000000000000054
:102B500000000000AE8F102A4C0000085243365F80
:102B600000000000000000000000000000AFAD10F9
:102B70002A4C0000085243375F00000000000000AC
:102B8000000000000000B0CB102A4C0000085243A7
:102B9000385F00000000000000000000000000B1ED
:102BA000E9102A4C000008524C4C325352565F0038
:102BB0000000000000000000E8CA092A2F000008F9
:102BC00050544348325352565F000000000000004A
:102BD00000E9A009492E00000859415732535256C6
:102BE0005F000000000000000000EA6E098830006D
:102BF00000085354454552325352565F00000000BE
:102C0000000000EF4A09D92F000008434F4D504102
:102C100053535F00000000000000000085BB0DBCA6
:102C20003700000853434845445F0000000000009F
:102C300000000000002C600F554800000852434D72
:102C400041505F0000000000000000000000EC5C4C
:102C50000F5E470000085352305F00000000000084
:102C6000000000000000006EBF084F2D0000085358
:102C700052335F0000000000000000000000000070
:102C80006F37084F2D000008494E535F00000000C9
:102C900000000000000000000021CA0CCD4200002E
:102CA00008414852535F000000000000000000008F
:102CB00000008C5C0B1E3100000841525350445FF1
:102CC00000000000000000000000008E45074C32AC
:102CD0000000084E41564C315F000000000000002B
:102CE00000000000EB370BA9440000085445435393
:102CF0005F000000000000000000000000EDEE0991
:102D000087480000084D4E545F000000000000009E
:102D1000000000000000A1FB053C45000008424106
:102D200054545F000000000000000000000000A6F6
:102D3000BE073E360000000000000000000000005A
:102D40000000000000000000000000000000000281
:102D5000005241575F53454E5300000000000000F1
:102D6000000068000000803F02014558545F535442
:102D700041540000000000000000006A00000080D4
:102D80003F020252435F4348414E000000000000F2
:102D9000000000006C000000803F02035241575FBA
:102DA0004354524C0000000000000000006E000080
:102DB00000803F0204504F534954494F4E000000D9
:102DC00000000000000070000000803F0205455830
:102DD0005452413100000000000000000000007269
:102DE000000000803F020645585452413200000066
:102DF000000000000000000074000000803F020797
:102E0000455854524133000000000000000000000B
:102E10000076000000803F0208504152414D5300AF
:102E200000000000000000000000780000002041C9
:102E300000FF000000000000000000000000000093
:102E4000000000000000000000040054434F4E53F7
:102E5000540000000000000000000000020000001C
:102E6000003F0401500000000000000000000000CE
:102E700000000000000600CDCCCC3E04024400005F
:102E800000000000000000000000000000000E0034
:102E90000AD7A33C04034900000000000000000022
:102EA000000000000000000A0000000000020452C0
:102EB0004D41585F55500000000000000000000028
:102EC0001200000000000205524D41585F444E00C0
:102ED00000000000000000000014000000000004DA
:102EE00006524C4C000000000000000000000000F2
:102EF000000016000000803F0207494D41580000C5
:102F000000000000000000000000001A000080BB6C
:102F10004400FF000000000000000000000000006E
:102F200000000000000000000000040054434F4E69
:102F300053540000000000000000000000020000E8
:102F400000003F04015000000000000000000000ED
:102F50000000000000000600CDCCCC3E040244007E
:102F60000000000000000000000000000000000E53
:102F7000000AD7A33C040349000000000000000041
:102F800000000000000000000A0000000000020431
:102F9000524D4158000000000000000000000000F9
:102FA000001200000000000205494D4158000000D9
:102FB0000000000000000000000014000080BB447E
:102FC00000FF000000000000000000000000000002
:102FD000000000000000000000040054434F4E5366
:102FE000540000000000000000000000000000008D
:102FF000403F0401500000000000000000000000FD
:10300000000000000004006666E63F04034900007B
:1030100000000000000000000000000000000800A8
:10302000CDCC4C3E04044400000000000000000031
:10303000000000000000000C000AD7A33B02054975
:103040004D4158000000000000000000000000009A
:1030500014000080BB4404064D494E535044000008
:1030600000000000000000000010000000803F0091
:10307000FF00000000000000000000000000000051
:1030800000000000000000000400534C4950000004
:10309000000000000000000000000002000000002E
:1030A000000401494E540000000000000000000030
:1030B00000000000060000000000040244414D50E2
:1030C000000000000000000000000000000A0000F6
:1030D0000000000403524C4C0000000000000000FF
:1030E0000000000000000E000000803F0205494D76
:1030F0004158000000000000000000000000001225
:10310000000080BB4400FF00000000000000000041
:1031100000000000000000000000000000000402A9
:103120004750535F4741494E000000000000000037
:103130000024000000803F01034750535F55534572
:10314000000000000000000000002C000000803F94
:1031500004045941575F50000000000000000000C7
:103160000000001C00CDCC4C3E040552505F5000C6
:103170000000000000000000000000002000CDCC96
:103180004C3E010657494E445F4D41580000000037
:1031900000000000002D0000000000050854524906
:1031A0004D000000000000000000000000003E0094
:1031B0000000000001094F5249454E544154494F07
:1031C0004E0000000000002E0000000000040A4332
:1031D0004F4D505F42455441000000000000000088
:1031E0002800CDCCCC3D010B4750535F4D494E5389
:1031F0004154530000000000002F000000C04001B7
:103200000C4750535F44454C4159000000000000FA
:10321000000030000000004000FF0000000000003F
:10322000000000000000000000000000000000009E
:103230000041697273706565642073656E736F72A7
:1032400020756E6865616C7468790A000100454EEE
:1032500041424C4500000000000000000000000951
:10326000000000803F0101555345000000000000B0
:103270000000000000000000080000000000040240
:103280004F46465345540000000000000000000077
:10329000000000000000000403524154494F0000A8
:1032A000000000000000000000000400492EFF3F65
:1032B000010450494E000000000000000000000022
:1032C0000000000A000000000001054155544F4372
:1032D000414C000000000000000000000B00000056
:1032E000000000FF000000000000000000000000DF
:1032F000000000000000000000000050414E494363
:103300003A2041505F4261726F3A3A7265616420BF
:10331000756E7375636365737366756C20666F7223
:10332000206D6F7265207468616E203530306D736A
:1033300020696E2041505F4261726F3A3A63616C5E
:10334000696272617465205B335D0D0A0050414E05
:1033500049433A2041505F4261726F3A3A72656167
:103360006420756E7375636365737366756C206630
:103370006F72206D6F7265207468616E2035303019
:103380006D7320696E2041505F4261726F3A3A63FB
:10339000616C696272617465205B325D0D0A005078
:1033A000414E49433A2041505F4261726F3A3A724E
:1033B00065616420756E7375636365737366756CA0
:1033C00020666F72206D6F7265207468616E2035A3
:1033D00030306D7320696E2041505F4261726F3AE8
:1033E0003A63616C696272617465205B315D0D0ADC
:1033F0000004024142535F50524553530000000005
:10340000000000000C0000000000040354454D5073
:1034100000000000000000000000000000080000A4
:103420000000000104414C545F4F46465345540090
:1034300000000000000010000000000000FF00007D
:10344000000000000000000000000000000000007C
:10345000000000000050414E49433A2041505F4275
:1034600061726F5F4D533536313120746F6F6B2051
:103470006D6F7265207468616E20313030306D730D
:1034800020746F20696E697469616C697A65005097
:10349000414E49433A2041505F4261726F5F4D5344
:1034A000353631313A206661696C656420746F206D
:1034B00074616B652073657269616C2073656D6101
:1034C00070686F726520666F7220696E6974005053
:1034D000414E49433A2041505F4261726F5F4D5304
:1034E000353631313A204E554C4C20736572696146
:1034F0006C206472697665720050414E49433A20EF
:103500006661696C656420746F2074616B65205F0F
:103510006932635F73656D203130302074696D6589
:103520007320696E206120726F772C20696E2041B4
:10353000505F4261726F5F4D53353631313A3A5FB9
:103540007570646174650050414E49433A204150A2
:103550005F4261726F5F4D5335363131206469646B
:10356000206E6F74206765742076616C69642049F1
:1035700032432073656D617068726F652100504140
:103580004E49433A206661696C656420746F20740B
:10359000616B65205F7370695F73656D20313030DA
:1035A0002074696D657320696E206120726F772CBD
:1035B00020696E2041505F4261726F5F4D53353616
:1035C00031313A3A5F7570646174650050414E491B
:1035D000433A2041505F4261726F5F4D533536313F
:1035E0003120646964206E6F742067657420766191
:1035F0006C6964205350492073656D617068726F07
:1036000065210050414E49433A2041505F4261726A
:103610006F5F4D533536313120646964206E6F74AD
:10362000206765742076616C69642053504920647A
:1036300065766963652064726976657221000100B0
:103640004D4F4E49544F5200000000000000000052
:10365000000000000000000101564F4C545F50492B
:103660004E0000000000000000000100000080BFCC
:103670000102435552525F50494E000000000000C5
:103680000000000200000080BF0403564F4C545F4E
:103690004D554C54000000000000000003009A99B2
:1036A00021410404414D505F504552564F4C540047
:1036B00000000000000700000088410405414D5053
:1036C0005F4F4646534554000000000000000B00C9
:1036D0000000000003064341504143495459000093
:1036E000000000000000000F0000404E4500FF00F9
:1036F00000000000000000000000000000000000CA
:10370000000000000000010054524947475F54592F
:103710005045000000000000000000000000000113
:10372000014455524154494F4E0000000000000032
:1037300000000100000020410202534552564F5F35
:103740004F4E00000000000000000002000080A2B8
:10375000440203534552564F5F4F46460000000057
:1037600000000000040000808944040454524947CA
:10377000475F444953540000000000000009000066
:1037800000000000FF00000000000000000000003A
:103790000000000000000000000000004661696CAD
:1037A000656420746F2067657420484D4335383454
:1037B000332073656D6170686F72650005014F4657
:1037C0005300000000000000000000000000001195
:1037D0000000000000040244454300000000000017
:1037E00000000000000000001D00000000000103B8
:1037F0004C4541524E000000000000000000000057
:10380000000F000000803F010455534500000000F8
:103810000000000000000000000021000000803FC8
:1038200001054155544F444543000000000000008D
:1038300000000022000000803F01064D4F54435419
:103840000000000000000000000000009E000000DA
:10385000000005074D4F540000000000000000006C
:1038600000000000009F000000000001084F5249C6
:10387000454E540000000000000000000000100051
:1038800000000000010945585445524E414C0000CB
:103890000000000000000023000000000000FF0006
:1038A0000000000000000000000000000000000018
:1038B0000000000000008011401140713273343369
:1038C0003213121132111293341314535231002156
:1038D000030406080B2D0A090705040241C011C0A4
:1038E0005112535473121112515273147332310026
:1038F0002102040506070809080607062403020139
:1039000002000120012011C0011100313213741393
:10391000143312F112D31251000102232506074677
:10392000442342210001E0A0313213B433111211BB
:10393000001120110052331213321120012224856C
:10394000042304020342410001E0A05112141315A4
:10395000131534133251400120115213323100013A
:103960002223040504050423010382612001E011E0
:1039700080113213541514333231402102010031C9
:1039800072314102234423020122012201026140DB
:1039900001A0118051121413341514331231400157
:1039A000020103020120521112202122430422416C
:1039B000022102A10001E020114051537413321181
:1039C00040210203020302010011121132001141D1
:1039D00022232221004102A1800160116011001107
:1039E00032337413121140016203020321311211A8
:1039F00012114001020102030201000100E121E075
:103A0000A01120121173343331200162036240127D
:103A10001112110011010001020122000120010018
:103A2000E1C001001180110012111312141334525D
:103A30002001E202212031121100110001002102B7
:103A400001000140210002410001E060114011121B
:103A50001113121413141332110021220342010214
:103A6000210001001100121100112001004160012C
:103A700000C10001401120016011405112131213C6
:103A800014331231000142032201022100014011CE
:103A900000310011000100010001A0E10001A001BE
:103AA00080112031529312110021C2210021403196
:103AB0000011201100010001E0E16001E01100119E
:103AC00072731231002142030102010220214011D0
:103AD000001120116001401160010001022102006B
:103AE0000120014001A05132131253321120010272
:103AF0000182210021000100110031E000110011BC
:103B00006021000102010201010021200100016089
:103B100011001152131214135211004182010200BC
:103B2000010021401100110011A0110031001120ED
:103B300081220101000201002100016011005213E5
:103B4000121314133231010002012201420100213B
:103B500000010001112011001120114071001140DD
:103B600001022102010201002102210001000100E5
:103B700011001211123312341332112001020142CA
:103B8000012201004100016011201100110011000B
:103B90005112312061020122020002010281201132
:103BA00000121173341332110041020182010061CD
:103BB00000018011001100913231402142010202C6
:103BC00000626140115214135433310041820122CA
:103BD00000010200410001609112115251200122A6
:103BE0000103010202008261005133541514333184
:103BF000002102012203424102A18031921332319D
:103C000000412203020103002203220102014011AC
:103C10001233953331010022010342032221220194
:103C2000026100011100115213125312310041229E
:103C3000032203002302030201022120321314167F
:103C40001517161533112001620302030203220126
:103C5000A241401112531413141332110100020136
:103C60000203020302020002230203222120321473
:103C700016371817151312110021220302430243AD
:103C8000010302038221201112131415341514327A
:103C900011000162230203004302034201201213B8
:103CA0001518193A1715131100210203026304E3D2
:103CB00002030203020102401213141517151634F1
:103CC0001220212243020300A32201001112151821
:103CD0001C1E1D1916131100020103020304230404
:103CE0000324030443042304030203422011121497
:103CF0001517183615133121020302230203241E5F
:103D0000191512100E0C0B0A0909090808080706F4
:103D1000060504040403040404000000000000007D
:103D200000000027262123252325242722292A2AAB
:103D30001C27282B33322725222C33313037000023
:103D4000000000000000000000000001FFFFE00094
:103D5000000000000001FFFFF00000000000000173
:103D6000FFFFF800000000000001FFFFFE00000060
:103D700000000003FFFFFF00000000000003FFFF42
:103D8000FFF000000000000FFFFFFFFE0000000337
:103D9000FFFFFC000007FC00007FFFFFFC000000AD
:103DA000000000001FFFFE000000000096918C87BD
:103DB000827D78736E69645F5A55504B46413C373B
:103DC000322D28231E19140F0A050004090E13189A
:103DD0001D22272C31363B40454A4F54595E6368BB
:103DE0006D72777C81868B90959A9FA4A9AEB3AFB4
:103DF000AAA5A09B968F89837E78736E69645F5AAB
:103E000055504B47423E3935302C27231F1B161285
:103E10000E09050103070B1014191D22262B2F3440
:103E2000393D42474C51565B60656B70757B8086AF
:103E30008C92979DA3A9AFB2ACA6A09A948F827CD6
:103E400076706B65605C57524E4A46413D3936325A
:103E50002E2A26221F1B1713100C08040102060A23
:103E60000E12161A1E22262B2F33383D41464B4F79
:103E700054595E64696F747A80878D949BA2AAB14D
:103E8000AEA69F979089826F68635E5955514D49E0
:103E900046423F3C3835322E2B2824211E1A171457
:103EA000100D0A0603000306090D1014181C202427
:103EB000282C3034393D41464A4F54585D62676D75
:103EC000737980878F98A2ACB0A59A90867D766F23
:103ED00055514D4A4744413F3C3A383533312E2BFA
:103EE000292623201D1A1713100D0A0704010103A8
:103EF00006090D1013171A1E22262A2E32363A3EB4
:103F000042464A4E53575B5F64696E757C85909F4D
:103F1000B2A08D7D7067605A553E3C3A39373634D1
:103F20003332302F2E2C2A292724221F1C19161336
:103F3000100D0A070402000305080A0D1013161AD3
:103F40001D2125292D3135383C4043464A4D5053DB
:103F500056595B5E6165696F826D544D4A474442B4
:103F6000403E2E2E2D2C2C2B2A2A29292827262587
:103F70002423211F1C1A1714100D0A070401010322
:103F80000507090C0E1013161A1D2124282C303396
:103F9000373A3D40424447484A4A4B4A48443D30FC
:103FA00019021621282B2D2E2F2E2E06090C0F124A
:103FB0001517191B1C1B1811040E2231383C3C3CF0
:103FC0003A3835322F2B2824201C1915110D0905DC
:103FD0000102060A0E1115181C1F222527292A2B5B
:103FE0002B2926211911080004080A0A0A080704C7
:103FF0000200030616181A1C1E20211F17125160FA
:1040000063625F5D5956524E4A46423E3935312C05
:104010002824201B17130E0A060102060A0F131785
:104020001B1F23262A2D313437393C3D3F3F3E3D6F
:1040300039352F28211C17151313131416A8ADB2E8
:10404000B0ABA6A19C97928D88837E79746F6A65C8
:10405000605B56514C47423D38332E29241F1A15B8
:10406000100B060103080D12171C21262B30353AC0
:104070003F44494E53585D62676C71767B80858AF8
:104080008F94999EA3A8B562060103000106011250
:104090004F24505542582C34312C312C3030303391
:1040A0002C303030312C33383430302C302A32360A
:1040B0000D0A004572726F723A2041505F48414CC0
:1040C0005F4D504E473A3A415652416E616C6F67B0
:1040D000496E206F7574206F66206368616E6E652F
:1040E0006C730D0A00474F494E4720444F574E20EE
:1040F000464F522041205245424F4F540D0A005026
:10410000414E49433A207363686564756C65723A41
:104110003A73797374656D5F696E697469616C690E
:104120007A65642063616C6C65646D6F7265207480
:1041300068616E206F6E63650050414E49433A20BE
:1041400041565253656D6170686F72653A3A746199
:104150006B6520757365642066726F6D20696E7380
:104160006964652074696D65722070726F63657330
:10417000730050414E49433A2053504930207772E2
:1041800069746520636F6C6C6973696F6E00504170
:104190004E49433A2053504930207472616E736621
:1041A000657220636F6C6C6973696F6E0043616C3C
:1041B0006962726174696F6E204641494C45440AD8
:1041C0000043616C6962726174696F6E207375631C
:1041D0006365737366756C0A005363616C696E671F
:1041E0003A20252E326620252E326620252E326674
:1041F0000A004F6666736574733A20252E32662076
:10420000252E326620252E32660A004661696C65CD
:104210006420746F2067657420494E532073616D6C
:10422000706C650A00506C6163652041504D20251B
:104230005320616E6420707265737320616E792003
:104240006B65792E0A006F6E2069747320424143BA
:104250004B006E6F7365205550006E6F7365204480
:104260004F574E006F6E206974732052494748546F
:104270002073696465006F6E20697473204C454635
:10428000542073696465006C6576656C0020002AB3
:1042900000496E697420416363656C000A67797236
:1042A0006F20646964206E6F7420636F6E76657230
:1042B00067653A20646966663D2566206470730A06
:1042C000002A00496E6974204779726F000200501D
:1042D000524F445543545F49440000000000000021
:1042E0001A000000000005014143435343414C00C4
:1042F0000000000000000000001C0000000000059D
:10430000024143434F4646530000000000000000B6
:10431000000028000000000005034759524F4646A0
:104320005300000000000000000000340000000006
:104330000001044D5055364B5F46494C54455200E0
:104340000000000040000000000000FF000000002E
:10435000000000000000000000000000000000005D
:104360000000004661696C656420746F20626F6FA5
:1043700074204D50553630303020352074696D65CD
:1043800073004D5055363030303A20556E61626CB6
:104390006520746F206765742073656D6170686F48
:1043A00072650049324320425950415353204D4FCA
:1043B0004445004661696C656420746F20626F6FCC
:1043C00074204D50553630303020352074696D657D
:1043D00073004D5055363030303A20556E61626C66
:1043E0006520746F206765742073656D6170686FF8
:1043F00072650050414E49433A2041505F496E6515
:10440000727469616C53656E736F725F4D5055368F
:104410003030303A3A5F706F6C6C5F646174612069
:104420006661696C656420746F2074616B652049F6
:1044300032432073656D6170686F72652073796EA9
:104440006368726F6E6F75736C790050414E4943AB
:104450003A206661696C656420746F20626F6F74C6
:10446000204D50553630303020352074696D6573DD
:10447000004D50553630303020696E6974206661C9
:10448000696C65640054696D6564206F757420778C
:10449000616974696E6720666F722075736572203A
:1044A000726573706F6E7365000400504552494F1A
:1044B0004400000000000000000000001D0000009B
:1044C000C841040144414D50494E470000000000DE
:1044D000000000000021000000403F00FF0000003D
:1044E00000000000000000000000000000000000CC
:1044F00000000000256C642E2530376C64002D0010
:10450000202025530A00436F6D6D616E64733A007D
:10451000496E76616C696420636F6D6D616E642CA9
:104520002074797065202768656C7027006578694C
:10453000740068656C700025535D200001004D4FCC
:1045400044450000000000000000000000000036AC
:104550000000000000050152455452414354000040
:1045600000000000000000004700000000000502FD
:104570004E45555452414C00000000000000000020
:10458000005300000000000503434F4E54524F4CAF
:10459000000000000000000000005F0000000000BC
:1045A0000104535441425F524F4C4C000000000044
:1045B0000000003300000000000105535441425F39
:1045C00054494C540000000000000000340000007A
:1045D00000000106535441425F50414E000000006C
:1045E0000000000000350000000000010752435F9A
:1045F000494E5F524F4C4C00000000000000370055
:10460000000000000208414E474D494E5F524F4C9A
:10461000000000000000003A0000A08CC502094123
:104620004E474D41585F524F4C00000000000000C3
:104630003C0000A08C45010A52435F494E5F54493B
:104640004C54000000000000003800000000000290
:104650000B414E474D494E5F54494C00000000004D
:1046600000003E0000A08CC5020C414E474D415851
:104670005F54494C00000000000000400000A08C86
:1046800045010D52435F494E5F50414E000000000E
:1046900000000000390000000000020E414E474DAE
:1046A000494E5F50414E00000000000000420000F3
:1046B000A08CC5020F414E474D41585F50414E00FE
:1046C000000000000000440000A08C4501104A5387
:1046D0005449434B5F535044000000000000004623
:1046E000000000000000FF000000000000000000CB
:1046F0000000000000000000000000000000426117
:104700006420636F6E76657273696F6E2074797062
:104710006520272553270A00556E6B6E6F776E2034
:10472000636F6E76657273696F6E20272553270A53
:104730000025733A2025660A0025733A20256C640B
:104740000A0025733A2025640A0025733A2025645F
:104750000A00454550524F4D2066756C6C000100B3
:10476000524F4C4C00000000000000000000000010
:104770000000000000803F01015049544348000000
:1047800000000000000000000000010000000040E8
:1047900001025448524F54544C45000000000000A0
:1047A0000000000300000040400103594157000091
:1047B00000000000000000000000000002000000F7
:1047C000804000FF0000000000000000000000002A
:1047D0000000000000000000000000010050494EF1
:1047E00000000000000000000000000000000000C9
:1047F000000080BF00FF000000000000000000007B
:10480000000000000000000000000000005363688A
:104810006564756C6572206F76657272756E207452
:1048200061736B5B25755D202825752F2575290A19
:10483000005363686564756C657220736C697020E1
:104840007461736B5B25755D202825752F25752F89
:104850002575290A00010044454255470000000023
:10486000000000000000000000000000000000FF49
:104870000000000000000000000000000000000038
:10488000000000000000000400434C4D425F4D4119
:104890005800000000000000000051000000A0408F
:1048A000040153494E4B5F4D494E0000000000008B
:1048B000000000550000000040040254494D455FCF
:1048C000434F4E5354000000000000005D00000004
:1048D000A04004035448525F44414D500000000082
:1048E000000000000065000000003F0404494E5431
:1048F00045475F4741494E00000000000000690045
:10490000CDCCCC3D0405564552545F414343000095
:10491000000000000000006D000000E040040648B8
:1049200047545F4F4D454741000000000000000024
:1049300049000000404004075350445F4F4D454735
:104940004100000000000000004D00000000400495
:1049500008524C4C32544852000000000000000045
:10496000000071000000204104095350445745499C
:10497000474854000000000000000075000000805F
:104980003F040A505443485F44414D50000000002A
:1049900000000000610000000000040B53494E4B72
:1049A0005F4D415800000000000000000059000069
:1049B00000A04000FF000000000000000000000018
:1049C00000000000000000000000000050414E49BF
:1049D000433A2044617461466C61736820535049C6
:1049E0004465766963654472697665722073656DA6
:1049F0006170686F7265206973206E756C6C005011
:104A0000414E49433A2044617461466C61736820A9
:104A100053504944657669636544726976657220CE
:104A20006E6F7420666F756E64004C6F672025751D
:104A30002C2020202073746172742025752C202076
:104A400020656E642025750A000A2575206C6F6745
:104A5000730A000A4E6F206C6F67730A0A004E7566
:104A60006D50616765733A20257520205061676538
:104A700053697A653A2025750A004D616E75666145
:104A80006374757265723A20307825303278202050
:104A9000204465766963653A203078253034780A99
:104AA000004E6F2064617461666C61736820696E8A
:104AB0007365727465640025750A0025752C0900FC
:104AC000444620706167652C206C6F672066696CB6
:104AD0006520232C206C6F6720706167653A202564
:104AE000752C09002C200025730025730025730008
:104AF000252E326600252E326600252E32660025D0
:104B00002E326600256600256C7500256C64002534
:104B1000750025640025750025640025532C2000B0
:104B2000554E4B4E2C2025750A00327C8900EDD95C
:104B30006877000000590000000000000000D69FC8
:104B4000DCA81817AA90437327F6B968EDF4DED4F1
:104B500009FEE61C1C84DDE80B992927D6DF8D2190
:104B60000F036418EFEE1EF0B7828200941500F375
:104B70007C0000001400988F00007F6A0000000095
:104B8000000000E7B73F3600000000000000AF66FD
:104B90009ED0385DD36C20B9EB5D7C7C770400003F
:104BA0000000000000000000000000000000000005
:104BB000000000000000000000000000002AF10FCB
:104BC00086DBD0BC5416131586004E44BD7F9A1563
:104BD000159001EA49B51653A78AEA0000000000C3
:104BE00000000000000000000000000000000000C5
:104BF00000000000000000000000000000000000B5
:104C000000000000000000000000000000000000A4
:104C10000000000000000000000000000000000094
:104C2000000000CC31AA2C532E0008000000000028
:104C300000000000000000000000000000000075FF
:104C40004C0000010146554E4354494F4E000000B0
:104C50000000000000001D000000000000FF000038
:104C60000000000000000000000000000000000044
:104C7000000000000002004D494E0000000000004E
:104C800000000000000000000A00008089440201CA
:104C90005452494D000000000000000000000000D8
:104CA000000C000080BB4402024D4158000000008F
:104CB000000000000000000000000E000080ED4435
:104CC00001035245560000000000000000000000F3
:104CD00000000010000000803F0205445A00000060
:104CE00000000000000000000000000011000000B3
:104CF000000000FF000000000000000000000000B5
:104D000000000000000000000000002C76D888673A
:104D10004F0823C1DFAE59B1B796E5E453C63A5107
:104D2000997696E6C28426898C9B62407C6FFCBC97
:104D30009C9F40BAA56FA590055A2A5C936B6C673F
:104D40006DC11BE0E40D47F520E6B5D0ED902E00D7
:104D50009435770080841E0000204E000000C83388
:104D6000333333986E128341EF8D21893BE655CF63
:104D7000FEE6DBD1844B38F77C1D90A4BBE42432E3
:104D800084725E8100C9F1ECA1E53DDCDFE1E3E680
:104D9000E8EBEDEFF2F4F7F9FCFE000305080A0C6E
:104DA0000F111416181B1D202224276E616E006936
:104DB0006E660001021020200808102040102040DC
:104DC00080020102010804020101020408102040CF
:104DD00080804020100804020180040201804020ED
:104DE0001008040201080402010102040810204016
:104DF00080010204081020408040050505050705D4
:104E000008080808020202020A0A08080404040446
:104E10000101010101010101030303030303030372
:104E2000040707070C0C0C0C0C0C0C0C0202020201
:104E300006060606060606060B0B0B0B0B0B0B0BEA
:104E400005000020002300260029002C002F00323E
:104E500000000100000301060109010000220025F5
:104E60000028002B002E0031003400020100000554
:104E70000108010B0100002100240027002A002D59
:104E8000003000330001010000040107010A014E57
:104E9000414E494E495459494E46CDCCCC3D0AD796
:104EA000233C17B7D13877CC2B329595E6241FB128
:104EB0004F0A000020410000C84200401C4620BCB0
:104EC000BE4CCA1B0E5AAEC59D740D947E1F0D9428
:104ED000B5310D94C7520D94D50F0D943A6F0D94C2
:104EE000D87C0D94C32C0D94D12E0D94A86D0D94E7
:104EF00097570D94176E0D946B2F0D9411300D94E0
:104F00002E770D94DF2F0D94C6700D9477810D943C
:104F1000DC140D940C360D948F440D94C13B0D940C
:104F20006A480D947E300D9484150D94664F0D944F
:104F3000720D0D942A470D945A2F0D943F750D94C0
:104F400052750D946C7B0D9496270D9472220D94DE
:104F5000137D0D94DE6A0D944F2E0D942F000D9449
:104F600096600D940A000D942A150D9455450D94E4
:104F70006D140D943A6D0D9459780D9447730D94FA
:104F8000A6300D9467140D94F8760D94516E0D941F
:104F900099680D94064B0D94FC660D942D430D9469
:104FA00074690D942D300D94C46E0D94851C0D9470
:104FB000346F0D94BD540D94610D0D948E6F0D944E
:104FC0006D750D940A160D94C82D0D9424150D942D
:104FD000F6650D94FC1D0D94C5610D9400690D944A
:104FE000FE2E0D947B520D94CD520D94A05D0D9428
:104FF000F4120D943F720D945C440D949B050D9436
:10500000EE120D94272E0D94FF740D946C6E0D947A
:105010004A2E0D94CB6E0D94D9300D9491480D9479
:10502000852C0D948F660D943C640D942E220D9466
:10503000AF2F0D94616D0D94320B0D94A6720D94EB
:10504000BF150D94EB6F0D941B430D9463710D947C
:1050500010160D94E46B0D946A010D946D110D946E
:10506000454F0D9400270D9408240D94FE420D9495
:105070007A6B0D9441730D94104A0D94690D0D9443
:1050800072650D94CC430D941E300D942F750D94C4
:1050900063190D94F9420D94844D0D94BC470D9401
:1050A000CA3D0D94E42F0D9495660D945A770D9496
:1050B00059150D94125E0D94CE150D94C32D0D94BB
:1050C0002A2F0D94283B0D94F12D0D94FD0E0D9477
:1050D000B3650D942D710D94D96D0D948A520D9474
:1050E000635C0D947F260D9443150D941A780D94EE
:1050F00061300D9480700D94B02D0D94240B0D949F
:105100001E2E0D94E10D0D94ED790D94D5040D94A2
:10511000543A0D943A080D94A3760D94E4640D94DA
:105120007E0D0D94866D0D948E2E0D94FC2F0D9496
:10513000B3180D946E6D0D941D6B0D94446E0D940B
:10514000CC500D9483630D94BA1D0D94B6130D9439
:1051500025420D94012D0D9434770D942E420D941B
:10516000A9740D94D2430D94780D0D94EA690D94B1
:10517000C1460D940B2F0D943D230D94EA050D941B
:10518000F0690D9435000D94460B0D946E7D0D94D1
:10519000D1490D94F3330D94EA640D94E6480D94CF
:1051A0001E4D0D9492520D94E56F0D944C430D9449
:1051B000F6720D94631E0D9441760D94BF300D94DC
:1051C000532A0D94D9870D94942B0D946A390D941C
:1051D000DB040D94FF2D0D9447440D94D13A0D94AA
:1051E000D1720D94FE650D9450150D9426750D9495
:1051F000A56E0D9457460D943D150D946C6A0D9453
:1052000056150D94AD180D94F2270D94876E0D94DC
:10521000AA3D0D947D630D945D190D94400B0D9482
:1052200034080D9495450D9470010D9472470D94BA
:10523000F0050D946E2E0D94AA750D94982E0D9474
:105240008A150D94B9650D9464560D9485290D94B5
:105250009F680D94BF2B0D94C8580D943C4D0D9430
:10526000FE6D0D94C9200D948F680D9437770D94C1
:105270003B2F0D9429660D94D4150D94EF670D9472
:105280005F150D9423310D94992F0D94976D0D9406
:10529000D16E0D946C520D942A340D94281F0D94E8
:1052A000BB2E0D946C320D94B8440D9437750D944B
:1052B00043300D9488670D9479360D947B2E0D94B0
:1052C00098300D94E92F0D9426210D94686B0D9460
:1052D000CB610D9480490D9465430D94BE6D0D9482
:1052E000F3310D944C2C0D94EA6B0D94A47A0D942B
:1052F000E2740D94466D0D94CF0F0D949C4C0D945B
:105300000F750D949F4B0D94477A0D94F6660D948E
:1053100095050D94132C0D9483590D946B438C9D1E
:105320007FD38DF0EBF837FC11241FBECFEFD1E215
:10533000DEBFCDBF00E00CBF15E0A0E0B2E0EAE4C4
:10534000FBE103E00BBF02C007900D92AE33B10743
:10535000D9F714E1AEE3B5E001C01D92A333B10764
:10536000E1F713E5C8E2D3E500E006C022970109A2
:10537000FE010BBF0F949A89CE31D10780E0080758
:10538000A9F70E94C4A10D94A38D0C940000089568
:10539000009739F0019791F48091F7139091F813E9
:1053A00004C08091F9139091FA13DC01ED91FC9106
:1053B0000680F781E02D199597FF089580E090E031
:1053C0000895E0919D0EF0919E0E0084F185E02DF0
:1053D0008DE99EE0199508950895ADE0B0E0E3EF02
:1053E000F9E20D9401898E010F5F1F4F8DE0D80106
:1053F0001D928A95E9F783EA898385E98A838AE0A1
:105400008B838091501190915111DC01ED91FC91B1
:105410000480F581E02D19956C837D838E839F83B5
:1054200080916A0B90916B0B9987888780916E0BA6
:1054300090916F0B9B878A878091720B9091730B71
:105440009D878C87E0912C0FF0912D0F0084F185C2
:10545000E02D4DE050E0B8018CE29FE019952D96CB
:10546000E4E00D941D89A4E1B0E0E9E3FAE20D94D3
:105470000389FB01BE016F5F7F4F94E1DB011D9249
:105480009A95E9F793EA998395E99A8394E09B8347
:1054900090919F0F9C838D8380818E8381818F83E8
:1054A0008281888783819481A581B68189879A8743
:1054B000AB87BC8787819085A185B2858D879E87C4
:1054C000AF87B88B83859485A585B685898B9A8BA4
:1054D000AB8BBC8BE0912C0FF0912D0F0084F185EC
:1054E000E02D44E150E08CE29FE019956496E2E003
:1054F0000D941F89A9E0B0E0E0E8FAE20D9400897C
:10550000F82E8E010F5F1F4F89E0D8011D928A95FA
:10551000E9F783EA898385E98A838BE08B8380912D
:10552000501190915111DC01ED91FC910480F581B5
:10553000E02D19956C837D838E839F83F886F98691
:10554000E0912C0FF0912D0F0084F185E02D49E0C2
:1055500050E0B8018CE29FE019952996E5E00D94A2
:105560001C89A0915011B0915111ED91FC911197AE
:105570000280F381E02DCD0119950895A09150117D
:10558000B0915111ED91FC9111970280F381E02DC2
:10559000CD01199508958091501190915111DC0120
:1055A000ED91FC910480F581E02D1995089580918D
:1055B000501190915111DC01ED91FC910680F78121
:1055C000E02D1995089580914C1190914D11DC01B9
:1055D000ED91FC916091CE0F61500480F581E02D3A
:1055E00019959C012F5833402B393440E8F49C0125
:1055F0002F5C344022383105C8F09C0121553540DC
:1056000022383105A8F09C01235D35402238310550
:1056100088F09C01255536402138310568F0863DDB
:10562000964060F085E008958FEF089581E0089539
:1056300082E0089583E0089584E0089580E008956D
:105640008091950F813031F487E39BE090932002A5
:1056500080931F0208950F931F93CF93DF93C09100
:105660001F02D0912002088119816091A50F7091CD
:10567000A60F77FF03C0719561957109882777FDA3
:105680008095982F0F9426849B01AC01D8015096E9
:10569000ED91FC915197009110076EEA76E0CE01F2
:1056A0001995DF91CF911F910F9108950F931F933B
:1056B0006091C0067091C1068091C2069091C306A8
:1056C0000091DF061091E0062091E1063091E2069C
:1056D000601B710B820B930B0F9426842AE037ED2D
:1056E00043E25CE30F9451861F910F9108950F934D
:1056F0001F938091D70F9091D80F24E6289F8001A7
:10570000299F100D1124222717FD2095322F60911B
:10571000C0067091C1068091C2069091C306601BBD
:10572000710B820B930B1F910F910895E09108115B
:10573000F0910911A081B18187E597E09F938F9344
:10574000FF93EF935096ED91FC91519719950F901F
:105750000F900F900F9008950F931F93CF93DF93A7
:10576000E0910811F0910911A081B1818EE699E0D4
:105770009F938F93FF93EF935096ED91FC915197E8
:1057800019950F900F900F900F90809108119091A4
:105790000911DC01ED91FC910084F185E02D199552
:1057A0008F3FBFEF9B0789F38F7D8935910509F006
:1057B00041C0E0910811F0910911A081B1818DE5FE
:1057C00099E09F938F93FF93EF935096ED91FC9107
:1057D000519719950F900F900F900F90C0E0D0E067
:1057E0000091461110914711D801ED91FC9102846E
:1057F000F385E02D40E0BE01C80119952196C11541
:10580000B0E1DB0789F7E0910811F0910911A0815F
:10581000B18187E599E09F938F93FF93EF93509623
:10582000ED91FC91519719950F900F900F900F905B
:1058300080E001C08FEFDF91CF911F910F9108950C
:10584000E0910811F0910911A081B181882319F02C
:105850008DEE9EE002C089EE9EE09F938F93FF93B2
:10586000EF935096ED91FC91519719950F900F90F1
:105870000F900F90E0910811F0910911A081B18172
:1058800082EE9EE09F938F93FF93EF935096ED915E
:10589000FC91519719950F900F900F900F900895CC
:1058A000E0910811F0910911A081B18183EA9AE099
:1058B0009F938F93FF93EF935096ED91FC915197A7
:1058C00019950F900F900F900F9080E008958091A0
:1058D000501190915111DC01ED91FC91068CF78DE6
:1058E000E02D60E0199580E0089580914A11909133
:1058F0004B11DC01ED91FC910088F189E02D1995A7
:10590000909115088913809315080895CF93DF931C
:10591000262F462F50E0DC01CD91DC914D30510512
:10592000E8F54E585F4FFA010D942A89EA85FB8508
:1059300064EE7BE031C0EA85FB856DED7BE02CC039
:10594000EA85FB8563ED7BE027C0EA85FB856AEC91
:105950007BE022C0EA85FB8565EC7BE01DC0EA8523
:10596000FB856FEB7BE018C0EA85FB8569EB7BE08C
:1059700013C0EA85FB8562EB7BE00EC0EA85FB8500
:105980006DEA7BE009C0EA85FB8569EA7BE004C03B
:10599000EA85FB8562EA7BE0199511C01F922F937F
:1059A00029E93BE03F932F939F938F93E889F989EF
:1059B00019950F900F900F900F900F900F90DF910F
:1059C000CF910895FF920F931F93CF93DF93F82EFB
:1059D0008B01C0914E11D0914F11E881F981068061
:1059E000F781E02D682FCE011995E881F9810684B1
:1059F000F785E02DA8016F2DCE011995CDB7DEB743
:105A0000E5E00D941C89E0910811F0910911A08145
:105A1000B1818FE69EE09F938F93FF93EF93509613
:105A2000ED91FC91519719950F900F900F900F9059
:105A300008950F931F93CF93DF93E5DF68EE73E034
:105A400080E090E08EDDE0910811F0910911A081D5
:105A5000B1818EE39DE09F938F93FF93EF935096D8
:105A6000ED91FC91519719950F900F900F900F9019
:105A7000C0913E11D0913F11E881F9810480F581F8
:105A8000E02DCE011995892B79F0A881B9810D916E
:105A90001C9111971896ED91FC911997CE011995CB
:105AA000682FCE01F8011995809108119091091184
:105AB000DC01ED91FC910480F581E02D199518161B
:105AC0001906D4F680E0DF91CF911F910F910895D0
:105AD000E0912C0FF0912D0F609108117091091138
