:100000000C94452A0C94762A0C94762A0C94762A21
:100010000C94762A0C94762A0C94762A0D949713D5
:100020000C94762A0C94762A0C94762A0D94521B02
:100030000C94762A0C94762A0C94762A0D94619F5F
:100040000C94762A0C94762A0C94762A0C94762AB0
:100050000C94762A0C94762A0C94762A0C94762AA0
:100060000C94762A0D943C140D946B140C94762AFF
:100070000C94762A0C94762A0C94762A0C94762A80
:100080000C94762A0C94762A0C94762A0C94762A70
:100090000D94A6140D94D5140C94762A0D94CA18B8
:1000A0000C94762A0D948E9F0C94762A0C94762AC2
:1000B0000C94762A0C94762A0D94BB9F0C94762A85
:1000C0000C94762A0C94762A0D9421200D94101508
:1000D0000D943F150C94762A0D947A150D94A9155C
:1000E0000C94762A243029302E30333038303D308D
:1000F000423047304C30513056305B3066306030E3
:10010000F471A171DC71AA71BE71DC71F471DC71E2
:10011000F471E171A572C172AD73DE7328747974E4
:100120008674C2744B7575765A7771777977627772
:100130006A778177D177AD77A4779B77B677BF77EA
:10014000C877897792775377EA77DA77FA770378FF
:100150000C7853771578B9803B7D7C80B9808D838E
:10016000E18051813983338D9A8D278EA98E458FF9
:10017000958DE28CA88FA08FB08FB58FD68FC88F4A
:10018000E28FC18FCF8FDD8FE98FF08F8190FD8F50
:100190005591729187918693E5914E92BD91FA9116
:1001A0008693869386938693869386938693869387
:1001B0008693869386938693869386938693869377
:1001C0007C9286938B92A192A6928E926395639570
:1001D0006C95799572956C95729572957295A095BE
:1001E000729572957295639518A4EBA67CA431A4C0
:1001F0004AA48DA4C0A4EBA6AEA579A5EBA615A52F
:10020000EBA6AFA4EBA6EBA6C6A5DFA5F8A5EBA6CB
:1002100063A42EA560A5EBA68CA59EA4EBA647A57E
:10022000EBA611A622A633A6EBA6E2A4F3A404A58E
:10023000D1A44CA67CA69DA595A616A726A72FA758
:100240003EA774A885A774A81FA825A82EA839A81A
:100250002CA741A874A852A85BA869A833B142B1E1
:1002600046B14DB151B1DBBB55B1DBBBDBBBDBBB39
:1002700059B15DB161B14B2919295F27D128972662
:100280000F29A3290128EB261F2ABB261F2A1F2A74
:10029000D328D328BB26BB26672715281528A327D4
:1002A0004B28372817296526BF26AB27FF284F285C
:1002B000FD28352A8529FB29FF2937270F2ABB2747
:1002C0006F2629298B276D266D28F9274B270D2AA4
:1002D0008D286326ED268B29E126EB289329952688
:1002E000E9260F280328C929BB296928632905277E
:1002F000F326F327512995283F2965287F29D529F9
:10030000C526FB26E327F529F928CB26F328012764
:10031000052AD928A126D728E7265127372A2F27AB
:100320002D29B327E5262F28E927D3299728312A15
:100330004327B7283729DB291B28A529ED279F2626
:1003400049294929E92849294929E928E928BD27CE
:10035000B326E328BD27B326E328BD27B326E32829
:1003600019270B270B27192719270B270B271927C5
:10037000192719271927C3287D280D293F280D295A
:100380000D29F5281D280D290D299529F128472625
:100390000D290D290D290D290D290D290D290D29AD
:1003A0000D290D290D298D290D290D290D290D291D
:1003B0000D290D290D29292797290D29412739288C
:1003C0000D29B52687270D290D290D290D29172758
:1003D0009B289B28212AD526D32747282B299929D2
:1003E00061275529AD26AD265926AD26B127B1275F
:1003F000B127B127B127AD26B127B127B127B12742
:10040000592659265926592659265926036EDB3670
:100410003D9A9999993DABAAAA2A3E000000803FD7
:10042000084AD73B3BCE016E84BCBFFDC12F3D6C5B
:1004300074319ABD56833DDA3D00C77F11BED9E4C1
:10044000BB4C3E916BAAAABE000000803F072C7AED
:10045000A5BA6CC590DA3B9365FC8BBC53F810FDD4
:100460003C5692834DBD879D3AB63DCBC9BF5BBE1E
:1004700073DA0FC93F05A84CCDB2D44EB93836A9AE
:10048000020C50B9918688083CA6AAAA2ABE000090
:1004900000803F08000000BE922449123EABAAAA89
:1004A0002ABECDCCCC4C3E00000080BEABAAAAAA8E
:1004B0003E00000000BF000000803F000000000080
:1004C000084178D3BB4387D1133D190E3CC3BD42CD
:1004D00082AD2B3E68EC8276BED98FE1A93E4C807E
:1004E000EFFFBE01C4FF7F3F00000000000664EC88
:1004F0001B3C04BC163E3BE5B93CC93C37C29E5A86
:100500003D660498083EEA69AAAA3E000000803FC2
:100510004D504E47000A41726475436F70746572A6
:1005200020332E312E352D52322063343639663742
:100530006220286334363966376239290A46726583
:10054000652052414D3A2025750A00626164206C95
:100550006F67206E756D6265720A0064756D7069F3
:100560006E6720616C6C0A00656E61626C650043A9
:10057000414D45524100494E415600434F4D504177
:10058000535300504944004F5054464C4F57004D70
:100590004F544F52530043555252454E5400434D11
:1005A0004400494D55004D4F4445004E54554E00B2
:1005B0004354554E00504D00475053004154544948
:1005C000545544455F4D45440041545449545544A5
:1005D000455F4641535400616C6C006D69737369EB
:1005E0006E67206C6F6720747970650A0020434144
:1005F0004D4552410020494E41560020434F4D5039
:10060000415353002050494400204F5054464C4F12
:100610005700204D4F544F525300204355525245DE
:100620004E540020434D440020494D5500204E5467
:10063000554E00204354554E0020504D0020475049
:1006400053002041545449545544455F4D4544009E
:100650002041545449545544455F46415354006E1B
:100660006F6E65006C6F677320656E61626C6564A8
:100670003A2000496E697469616C6973696E67201C
:100680006779726F73000A4F703A5B6F6E2C6F66FA
:10069000665D0A006F6666006F6E007468723A25C8
:1006A00064206375723A25342E3266206D6F742093
:1006B000783A25342E316620793A25342E31662059
:1006C0007A3A25342E31662020636F6D7020783A97
:1006D00025342E326620793A25342E3266207A3A35
:1006E00025342E32660A004661696C656421204318
:1006F0006F6D70656E736174696F6E20646973618C
:10070000626C65642E202044696420796F752066D0
:100710006F7267657420746F2072616973652074ED
:100720006865207468726F74746C652068696768A6
:1007300020656E6F7567683F000A496E7465726662
:100740006572656E63652061742066756C6C2074DB
:1007500068726F74746C6520697320256425252088
:100760006F66206D6167206669656C640A0A0063C4
:100770006865636B20636F6D706173730A007468E2
:10078000726F74746C65206E6F74207A65726F0A74
:10079000005448524F54544C450A00435552524558
:1007A0004E540A0054686973207265636F726473F3
:1007B0002074686520696D70616374206F6E2074A9
:1007C000686520636F6D70617373206F662072754A
:1007D0006E6E696E6720746865206D6F746F7273DA
:1007E0002E20204D6F746F72732077696C6C2073AC
:1007F00070696E210A486F6C64207468726F74743B
:100800006C65206C6F772C207468656E207261694E
:10081000736520746F206D696420666F72203520C7
:100820007365632C207468656E20717569636B6CE9
:1008300079206261636B20746F206C6F772E0A5091
:100840007265737320616E79206B657920746F20F7
:10085000657869742E0A0A6D6561737572696E67D1
:1008600020636F6D706173732076732000636F6D0A
:10087000706173732064697361626C65640A0072ED
:100880006164696F206E6F742063616C696272616C
:100890007465640A00646F6E650A000A45726173CC
:1008A000696E6720454550524F4D0A000A4F703A15
:1008B0005B782C2B2C765D0A0076002B007000787C
:1008C000000A4D6F64652073776974636820746FE4
:1008D00020656469742C2061696C65726F6E3A20C2
:1008E00073656C656374206D6F6465732C2072751D
:1008F000646465723A2053696D706C65206F6E2F69
:100900006F66660A000A53617665640A000A4D6FD5
:10091000766520616C6C20636F6E74726F6C7320EF
:10092000746F2065787472656D65732E20456E74E2
:10093000657220746F20736176653A20000A0A524E
:100940006164696F2053657475703A002025642CCA
:10095000204C6F773A25312E34662C204869676821
:100960003A25312E34660A000A54554E453A0A009B
:100970000A434820362052616E67657320617265B4
:100980002064697669646564206279203130303092
:100990003A205B6C6F772C20686967685D0A000AF3
:1009A0005265626F6F742041504D000A275927200D
:1009B0003D20666163746F72792072657365742C73
:1009C00020616E79206F74686572206B6579207480
:1009D0006F2061626F72743A0A0043616E6E6F74C9
:1009E0002073657420706172616D65746572206F2B
:1009F0006620747970652025642E0A0056616C7536
:100A000065206F7574206F662072616E6765206661
:100A10006F72207479706520494E5431360A005641
:100A2000616C7565206F7574206F662072616E67EA
:100A30006520666F72207479706520494E54380ABB
:100A400000506172616D206E6F7420666F756E6408
:100A50003A2025730A00496E76616C696420636FE1
:100A60006D6D616E642E2055736167653A20736504
:100A700074203C6E616D653E203C76616C75653E10
:100A80000A004D6F6465282575290053504F525454
:100A9000004452494654004F465F4C4F495445521A
:100AA000004C414E4400504F534954494F4E00436F
:100AB0004952434C450052544C004C4F4954455206
:100AC00000475549444544004155544F00414C545A
:100AD0005F484F4C44004143524F005354414249F8
:100AE0004C495A45004F46460A004F4E0A002C0911
:100AF0000953696D706C653A2000506F732025644E
:100B00003A0900466C69676874206D6F6465730A02
:100B100000766F6C747320616E642063757200766A
:100B20006F6C7473000A42617474204D6F6E3A0AE0
:100B30000056206D6F64650A002B206D6F64650A96
:100B40000058206D6F64650A0051756164206672FB
:100B5000616D650A004672616D650A004348383A66
:100B6000202564207C2025640A004348373A20254C
:100B700064207C2025640A004348363A20256420FE
:100B80007C2025640A004348353A202564207C20D7
:100B900025640A004348343A202564207C202564DB
:100BA0000A004348333A202564207C2025640A004B
:100BB0004348323A202564207C2025640A004348BB
:100BC000313A202564207C2025640A005261646942
:100BD0006F0A00506172616D65746572206E6F748A
:100BE00020666F756E643A20272573270A005479B2
:100BF00070653A2025642028303D584C2C20313D2A
:100C00004C562C20323D584C4C2C20333D48524CF5
:100C1000562900536F6E61720A000A4F703A5B6F7B
:100C20006E2C206F66662C20302D335D0A006F66B7
:100C300066006F6E000A2054797065202772616427
:100C4000696F27206E6F772E0A0A000A215761729A
:100C50006E696E672C20726164696F206E6F7420FC
:100C6000636F6E666967757265642100536574759C
:100C700070204D6F64650A0A0A00436F6D6D616EE6
:100C800064733A0A20206C6F67730A2020736574BE
:100C900075700A2020746573740A20207265626F73
:100CA0006F740A0A00416C743A2025302E32666D4A
:100CB0002C205261773A2025662054656D7065724C
:100CC00061747572653A20252E31660A006E6F7464
:100CD000206865616C746879000A436F6D702056F6
:100CE00065633A2025342E32662C2025342E326658
:100CF0002C2025342E32660A0043757272656E749C
:100D0000005468726F74746C65004F66660A004D1B
:100D10006F746F7220436F6D703A20004D616720D1
:100D20006F66663A2025342E34662C2025342E3406
:100D3000662C2025342E34660A004D6167204465F8
:100D4000633A2025342E34660A00436F6D70617358
:100D5000730A0061626C65640A0064697300656E01
:100D600000736176696E67206F66667365747300E1
:100D7000636F6D70617373206E6F74206865616C52
:100D80007468790048656164696E673A20256C640F
:100D90002C2058595A3A2025642C2025642C2025D3
:100DA000642C0958595A6F66663A2025362E3266E9
:100DB0002C2025362E32662C2025362E32660A004F
:100DC000436F6D7061737320696E697469616C69DA
:100DD000736174696F6E206661696C65642100439C
:100DE0006F6D706173733A20002E002C20416C747B
:100DF0003A20256C646D2C2023736174733A20258E
:100E0000640A002C204C6F6E20004C61743A200064
:100E1000612025372E34662025372E34662025376D
:100E20002E346620672025372E34662025372E3451
:100E3000662025372E346620742025372E34662010
:100E40000A002E2E2E646F6E650A00494E530A006A
:100E500054657374696E672064617461666C617354
:100E600068206C6F6767696E6700436F6E6E6563BD
:100E700074206261747465727920666F7220746880
:100E8000697320746573742E0A4D6F746F727320CA
:100E900077696C6C207370696E206279206672616C
:100EA0006D6520706F736974696F6E206F72646511
:100EB000722E0A46726F6E74202826207269676847
:100EC00074206F662063656E7465726C696E652947
:100ED000206D6F746F722066697273742C20746851
:100EE000656E20696E20636C6F636B776973652034
:100EF0006F726465722061726F756E6420667261D4
:100F00006D652E0A52656D656D62657220746F2085
:100F1000646973636F6E6E65637420626174746577
:100F200072792061667465722074686973207465D3
:100F300073742E0A416E79206B657920746F206579
:100F40007869742E0A00494E3A20313A2025640906
:100F5000323A20256409333A20256409343A2025A1
:100F60006409353A20256409363A20256409373A60
:100F700020256409383A2025640A00494E20203192
:100F80003A20256409323A20256409333A20256441
:100F900009343A20256409353A20256409363A2077
:100FA000256409373A2025640A0048697420456E93
:100FB00074657220746F20657869742E0A0A005275
:100FC000656C6179206F66660A0052656C617920F4
:100FD0006F6E0A0043726173683A204469736172EC
:100FE0006D696E67004175746F54756E653A204681
:100FF00061696C6564004175746F54756E653A2063
:1010000053756363657373004175746F54756E65D2
:101010003A205374617274656400666C6967687421
:1010200020706C616E207265636569766564006628
:101030006C6967687420706C616E2075706461748F
:10104000652072656A656374656400556E6B6E6FCA
:10105000776E20706172616D6574657220252E3126
:10106000367300556E6B6E6F776E20706172616DB6
:101070006574657220696E6465782025640041722C
:101080006475436F7074657220332E312E352D5286
:101090003220633436396637622028633436396645
:1010A0003762392900636F6D6D616E64207265630C
:1010B00065697665643A2000434F4D504153532093
:1010C000494E4954204552524F5200455343204304
:1010D000616C6962726174696F6E206163746976B4
:1010E000653A2070617373696E67207468726F74FB
:1010F000746C65207468726F75676820746F204522
:101100005343732E0A00456E746572696E672045FD
:1011100053432043616C6962726174696F6E3A2057
:10112000706C6561736520726573746172742041BF
:10113000504D2E0A004C6F67206572617365206305
:101140006F6D706C6574650A0045726173696E67D6
:10115000206C6F67730A006C6F61645F616C6C2058
:10116000746F6F6B20256C7575730A00646F6E6504
:101170002E004669726D77617265206368616E67E3
:10118000653A2065726173696E6720454550524F1C
:101190004D2E2E2E0A004657205665723A202564A1
:1011A0000A00496E697469616C6973696E672041F0
:1011B000504D2E2E2E000A526561647920746F20E6
:1011C000464C5920000A507265737320454E5445B1
:1011D0005220332074696D657320746F20737461BD
:1011E000727420696E7465726163746976652073C8
:1011F000657475700A0032333466733334353637AC
:101200000045524153494E47204C4F4753004E6FC3
:101210002064617461666C61736820696E736572C5
:10122000746564000A0A496E6974204172647543EA
:101230006F7074657220332E312E352D523220633B
:101240003436396637622028633436396637623976
:10125000290A0A467265652052414D3A2025750AD1
:10126000426F61726420547970653A2025640A00E7
:101270004C6F73742047505321004C6F77204261AC
:10128000747465727921006261726F6D6574657244
:101290002063616C6962726174696F6E20636F6D47
:1012A000706C6574650043616C6962726174696E2B
:1012B00067206261726F6D6574657200415F6F6671
:1012C000663A2025342E32662C2025342E32662CA8
:1012D0002025342E32660A415F7363616C653A20C3
:1012E00025342E32662C2025342E32662C202534CF
:1012F0002E32660A00475F6F66663A2025342E322A
:10130000662C2025342E32662C2025342E32660A97
:10131000002D00494E530A0047524F554E4420536A
:10132000544152540041726475436F707465722069
:10133000332E312E352D52322063343639663762E2
:1013400020286334363966376239290041726D3A94
:10135000205361666574792053776974636800412E
:10136000726D3A205468722062656C6F7720465324
:10137000005265616368656420436F6D6D616E64E2
:10138000202325690050726541726D3A20426164E4
:101390002047505320506F730050726541726D3A70
:1013A000204143524F5F42414C5F524F4C4C2F50B3
:1013B000495443480050726541726D3A2043686554
:1013C000636B20414E474C455F4D4158005072655C
:1013D00041726D3A20436865636B2046535F544801
:1013E000525F56414C55450050726541726D3A202E
:1013F00043683726436838204F70742063616E6EEF
:101400006F742062652073616D6500507265417272
:101410006D3A20436865636B20426F6172642056A9
:101420006F6C746167650050726541726D3A204956
:101430004E53206E6F74206865616C74687900503B
:10144000726541726D3A20494E53206E6F7420636D
:10145000616C696272617465640050726541726D9D
:101460003A20436865636B206D6167206669656C2F
:10147000640050726541726D3A20436F6D70617304
:1014800073206F66667365747320746F6F2068696C
:1014900067680050726541726D3A20436F6D7061EC
:1014A0007373206E6F742063616C6962726174651E
:1014B000640050726541726D3A20436F6D706173C4
:1014C00073206E6F74206865616C74687900507267
:1014D0006541726D3A204261726F206E6F742068B0
:1014E00065616C7468790050726541726D3A205282
:1014F00043206E6F742063616C696272617465640D
:1015000000504552463A2025752F257520256C75CB
:101510000A0074657374006261726F00000000005D
:1015200000000000005D79636F6D706173730000EF
:1015300000000000009A5A6770730000000000006D
:101540000000000000FA42696E7300000000000015
:101550000000000000C9C26C6F6767696E67000019
:1015600000000000007A306D6F746F72730000002D
:10157000000000000083996F7074666C6F77000044
:101580000000000000973070776D00000000000040
:1015900000000000001599726164696F000000008E
:1015A0000000000000AD9872656C617900000000D9
:1015B00000000000002134736F6E617200000000B3
:1015C0000000000000993041726475436F707465CB
:1015D0007220332E312E352D523220633436396647
:1015E0003762006C6F6773000000000000000000AD
:1015F000009C4273657475700000000000000000DC
:1016000000A2427465737400000000000000000036
:101610000096427265626F6F740000000000000067
:1016200000C32F68656C700000000000000000001F
:1016300000AC2F736574757000616363656C0000A6
:10164000000000000000006C3E636F6D70617373FA
:1016500000000000000000CA4F636F6D706173737B
:101660006D6F7400000000BF9D65726173650000BE
:1016700000000000000000422F6672616D650000EE
:1016800000000000000000334F6D6F6465730000C0
:1016900000000000000000149B6F7074666C6F7790
:1016A000000000000000002A2F726164696F0000D2
:1016B00000000000000000E99972616E676500009B
:1016C000000000000000005C50726573657400004B
:1016D00000000000000000A94473657400000000D1
:1016E00000000000000000F55773686F77000000ED
:1016F00000000000000000D84D736F6E61720000A2
:10170000000000000000007A4F8D000100424154AB
:10171000545F4D4F4E49544F520000000000A80046
:101720000100424154545F564F4C545F50494E00A3
:10173000000000A9000100424154545F4355525239
:101740005F50494E000000008E0004004241545496
:101750005F564F4C545F4D554C540000008F0004B1
:1017600000424154545F414D505F504552564F4CDA
:10177000540091000300424154545F43415041439F
:10178000495459000000008059464D54000042421F
:101790006E4E5A0000000000000000000000547966
:1017A00070652C4C656E6774682C4E616D652C46B7
:1017B0006F726D6174000000000000000000000006
:1017C0000000000000000000000000000000000019
:1017D0000000000000000000000000000000811771
:1017E0005041524D004E6600000000000000000015
:1017F00000000000004E616D652C56616C7565003F
:1018000000000000000000000000000000000000D8
:1018100000000000000000000000000000000000C8
:1018200000000000000000000000000000000000B8
:101830000000000000822D475053000042494842FA
:10184000634C4C65654565664900000053746174DE
:1018500075732C54696D654D532C5765656B2C4E13
:10186000536174732C48446F702C4C61742C4C6E13
:10187000672C52656C416C742C416C742C537064F1
:101880002C474372732C565A2C540000831F494D29
:101890005500004966666666666600000000000046
:1018A00000000054696D654D532C477972582C47E0
:1018B0007972592C4779725A2C416363582C4163D1
:1018C00063592C4163635A000000000000000000CF
:1018D0000000000000000000000000000000000008
:1018E00000000084434D534700005A0000000000F0
:1018F000000000000000000000004D657373616788
:101900006500000000000000000000000000000072
:1019100000000000000000000000000000000000C7
:1019200000000000000000000000000000000000B7
:101930000000000000000000000019194154554E3D
:101940000042426666666666000000000000000015
:1019500000417869732C54756E65537465702C5210
:101960006174654D696E2C526174654D61782C52BD
:10197000504761696E2C52444761696E2C53504741
:1019800061696E000000000000000000000000001F
:10199000001A09415444450063660000000000003D
:1019A0000000000000000000416E676C652C526171
:1019B000746500000000000000000000000000004E
:1019C0000000000000000000000000000000000017
:1019D0000000000000000000000000000000000007
:1019E0000000000000000000091343555252006837
:1019F00049686868660000000000000000000054AC
:101A000068724F75742C546872496E742C566F6CE2
:101A1000742C437572722C5663632C437572725426
:101A20006F740000000000000000000000000000D3
:101A30000000000000000000000000000000000B9B
:101A40000B4D4F54000068686868000000000000FB
:101A50000000000000004D6F74312C4D6F74322C6B
:101A60004D6F74332C4D6F74340000000000000083
:101A70000000000000000000000000000000000066
:101A80000000000000000000000000000000000056
:101A90000000000000000C1C4F4600000068684277
:101AA0006363666665650000000000000044782CF2
:101AB00044792C535175616C2C582C592C4C617401
:101AC0002C4C6E672C526F6C6C2C506974636800E0
:101AD0000000000000000000000000000000000006
:101AE0000000000000000000000000000005314E72
:101AF00054554E004563666666666666666665654D
:101B00000000000057504473742C57504272672CE9
:101B1000504572582C504572592C4456656C582CBF
:101B20004456656C592C56656C582C56656C592C6E
:101B3000444163582C444163592C44526F6C2C44EB
:101B40005069740004194354554E00686365666318
:101B50006868686800000000000000546872496E00
:101B60002C536F6E416C742C426172416C742C5713
:101B700050416C742C446573536F6E416C742C41EE
:101B80006E674273742C43526174652C5468724FB3
:101B900075742C44435261746500000F154D414724
:101BA000000068686868686868686800000000008D
:101BB00000004D6167582C4D6167592C4D61675A83
:101BC0002C4F6673582C4F6673592C4F66735A2CE2
:101BD0004D4F6673582C4D4F6673592C4D4F66739D
:101BE0005A0000000000000000000000000000009B
:101BF00000000613504D0000004242484849684228
:101C000048420000000000000052656E436E742CD4
:101C100052656E426C772C4E4C6F6E2C4E4C6F6F33
:101C2000702C4D6178542C504D542C4932434572E0
:101C3000722C494E534572722C494E415645727270
:101C40000000000000000000000814434D440000A4
:101C50004242424242654C4C00000000000000003D
:101C600043546F742C434E756D2C4349642C434F81
:101C700070742C50726D312C416C742C4C61742C2E
:101C80004C6E670000000000000000000000000033
:101C90000000000000000000000000000000000044
:101CA00001114154540000636363636343430000C4
:101CB00000000000000000526F6C6C496E2C526FE7
:101CC0006C6C2C5069746368496E2C50697463683D
:101CD0002C596177496E2C5961772C4E6176596188
:101CE000770000000000000000000000000000007D
:101CF000000000000000001125494E4156006363BA
:101D0000636666666969666600000000000042411D
:101D10006C742C49416C742C49436C622C41436FA8
:101D20007272582C41436F7272592C41436F727218
:101D30005A2C474C61742C474C6E672C494C61748B
:101D40002C494C6E670000000000000000000306F4
:101D50004D4F4445004D68000000000000000000A9
:101D600000000000004D6F64652C5468724372736C
:101D70000000000000000000000000000000000063
:101D80000000000000000000000000000000000053
:101D90000000000000000000000000000000000043
:101DA00000000000000A03535452540000000000D9
:101DB0000000000000000000000000000000000023
:101DC0000000000000000000000000000000000013
:101DD0000000000000000000000000000000000003
:101DE00000000000000000000000000000000000F3
:101DF0000000000000000000000000000D04455637
:101E00000000004200000000000000000000000090
:101E10000000004964000000000000000000000015
:101E200000000000000000000000000000000000B2
:101E300000000000000000000000000000000000A2
:101E40000000000000000000000000000000000092
:101E50000000001406443136000042680000000013
:101E60000000000000000000000049642C56616C76
:101E70007565000000000000000000000000000088
:101E80000000000000000000000000000000000052
:101E90000000000000000000000000000000000042
:101EA0000000000000000000000015064455313617
:101EB0000042480000000000000000000000000098
:101EC0000049642C56616C7565000000000000003C
:101ED0000000000000000000000000000000000002
:101EE00000000000000000000000000000000000F2
:101EF00000000000000000000000000000000000E2
:101F0000001608443332000042690000000000005F
:101F1000000000000000000049642C56616C7565EB
:101F200000000000000000000000000000000000B1
:101F300000000000000000000000000000000000A1
:101F40000000000000000000000000000000000091
:101F50000000000000000000170844553332004222
:101F600049000000000000000000000000000049DF
:101F7000642C56616C7565000000000000000000D4
:101F80000000000000000000000000000000000051
:101F90000000000000000000000000000000000041
:101FA0000000000000000000000000000000001819
:101FB0000844464C54004266000000000000000047
:101FC00000000000000049642C56616C756500003B
:101FD0000000000000000000000000000000000001
:101FE00000000000000000000000000000000000F1
:101FF00000000000000000000000000000000000E1
:102000000000000000000E1C5049440000426969B5
:102010006969696600000000000000000049642C46
:102020004572726F722C502C492C442C4F75742CB5
:102030004761696E00000000000000000000000021
:102040000000000000000000000000000000000090
:1020500000000000000000000000000000121B4310
:10206000414D000049484C4C65636343000000004B
:102070000000000047505354696D652C475053577A
:1020800065656B2C4C61742C4C6E672C416C742C08
:10209000526F6C6C2C50697463682C596177000026
:1020A0000000000000000000000000000000000030
:1020B000000000001305455252000042420000009B
:1020C00000000000000000000000005375627379FA
:1020D000732C45436F6465000000000000000000A1
:1020E00000000000000000000000000000000000F0
:1020F00000000000000000000000000000000000E0
:1021000000000000000000000000004C6F67006449
:10211000756D7000000000000000000000A3406525
:1021200072617365000000000000000000F1796535
:102130006E61626C650000000000000000F25064F7
:10214000697361626C6500000000000000F2507766
:102150006F0200C201FFA102008403DE460100906D
:1021600001FB9C0A00D00278A80A0032001DB00AC8
:10217000000A00A0310A008C002A590A00E80397DF
:10218000900A0020039AA321005A0097310200A46C
:1021900001922A0200FA00933102006400E9AE6461
:1021A00000A4013F7A0A00140065BD020026025E09
:1021B000AC640096005BAC0200D00234AD0200B605
:1021C00003B3590A0037008B310200C2016D460A81
:1021D00000040152460200DC000A70E803C80096C1
:1021E000340A0032000253595349445F53575F4D3C
:1021F00052455600000000005B1100000000015332
:10220000595349445F53575F5459504500000000EB
:10221000015D11000020410253595349445F544865
:1022200049534D415600000000705E110000803F90
:102230000253595349445F4D59474353000000002E
:10224000000071601100007F430153455249414C29
:10225000315F4241554400000000007262110000ED
:1022600064420154454C454D5F44454C4159000082
:1022700000000000736311000000000252544C5F24
:10228000414C5400000000000000000000A0641158
:102290000080BB4401534F4E41525F454E41424C7A
:1022A0004500000000009466110000000001534F3B
:1022B0004E41525F54595045000000000000009A02
:1022C00067110000000004534F4E41525F474149DF
:1022D0004E000000000000001E6811CDCC4C3F01F4
:1022E00046535F424154545F454E41424C450000C5
:1022F00000C16C11000000000446535F4241545479
:102300005F564F4C544147450000976D110000281F
:10231000410446535F424154545F4D414800000020
:10232000000000257111000000000146535F475076
:10233000535F454E41424C4500000000C3751100FB
:1023400000803F0146535F4743535F454E41424C37
:102350004500000000C676110000000002475053FF
:102360005F48444F505F474F4F44000000002377C1
:102370001100004843014D41475F454E41424C45E5
:10238000000000000000009279110000803F01462B
:102390004C4F575F454E41424C4500000000000045
:1023A000967A11000000000153555045525F534981
:1023B0004D504C4500000000009B7B1100000000C8
:1023C0000252544C5F414C545F46494E414C000010
:1023D0000000A37C110000000001525353495F50DC
:1023E000494E000000000000000000187F110000AE
:1023F00080BF0157505F5941575F42454841564998
:102400004F5200001A8011000000400157505F54E5
:102410004F54414C000000000000000000D3871121
:10242000000000000157505F494E4445580000002D
:10243000000000000000D4881100000000024349A1
:1024400052434C455F52414449555300000000D768
:1024500089110000204104434952434C455F5241D9
:1024600054450000000000001D8B110000A0410336
:1024700052544C5F4C4F49545F54494D4500000045
:1024800000A28F1100409C45024C414E445F5350C6
:1024900045454400000000000000D99311000048A9
:1024A000420250494C4F545F56454C5A5F4D41587B
:1024B0000000001C951100007A43025448525F4D01
:1024C000494E00000000000000000000B497110019
:1024D000000243025448525F4D4158000000000082
:1024E0000000000000B5991100007A440146535FD6
:1024F0005448525F454E41424C4500000000B69B97
:1025000011000000000246535F5448525F56414C90
:1025100055450000000000B89C1100C073440254EF
:1025200052494D5F5448524F54544C4500000000EE
:10253000B99E110000E143025448525F4D494400E6
:10254000000000000000000000C2A0110000FA43DB
:1025500001464C544D4F444531000000000000003E
:102560000000C8A2110000000001464C544D4F4429
:102570004532000000000000000000C9A311000067
:10258000000001464C544D4F44453300000000000C
:1025900000000000CAA4110000000001464C544D88
:1025A0004F444534000000000000000000CBA5119E
:1025B0000000000001464C544D4F444535000000DA
:1025C000000000000000CCA6110000000001464CF5
:1025D000544D4F444536000000000000000000CD7F
:1025E000A711000000000153494D504C4500000068
:1025F0000000000000000000CEA811000000000252
:102600004C4F475F4249544D41534B00000000007E
:102610000014A91100804F440145534300000000FD
:1026200000000000000000000000BAAB1100000034
:10263000000154554E45000000000000000000005D
:10264000000000BBAC11000000000254554E455F75
:102650004C4F57000000000000000000BDAF11000B
:102660000000000254554E455F48494748000000AD
:102670000000000000BCAD1100007A440146524148
:102680004D4500000000000000000000000095B172
:10269000110000803F014348375F4F505400000055
:1026A0000000000000000098B2110000000001438B
:1026B00048385F4F50540000000000000000000048
:1026C0001FB311000000000141524D494E475F43C6
:1026D0004845434B000000000020B4110000803F3B
:1026E00002414E474C455F4D41580000000000003C
:1026F000000022811100A08C4503414E474C455FEC
:10270000524154455F4D415800000026831100A0FE
:102710008C46085243315F000000000000000000BA
:1027200000000000AAB511304A0000085243325F91
:1027300000000000000000000000000000ABD2110B
:10274000304A0000085243335F00000000000000E0
:10275000000000000000ACEF11304A0000085243B6
:10276000345F00000000000000000000000000AD29
:102770000C12304A0000085243355F000000000090
:102780000000000000000000AE2912E5490000082A
:102790005243365F0000000000000000000000000F
:1027A00000AF4712E5490000085243375F000000C0
:1027B00000000000000000000000B06512E54900C4
:1027C00000085243385F00000000000000000000D5
:1027D000000000B18312E549000008524331305F28
:1027E000000000000000000000000000B2A112E59F
:1027F00049000008524331315F0000000000000032
:102800000000000000B3BF12E54900000252435F20
:102810005350454544000000000000000000C0DDAA
:10282000120000F543044143524F5F52505F500085
:1028300000000000000000DDDF12000090400441B5
:1028400043524F5F5941575F5000000000000000A5
:10285000F4E31200009040044143524F5F42414C68
:102860005F524F4C4C00000000F2E7120000803F26
:10287000044143524F5F42414C5F5049544348002A
:102880000000F3EB120000803F014143524F5F54C0
:102890005241494E455200000000001BEF1200005B
:1028A0000040014C45445F4D4F444500000000008E
:1028B000000000009E7E1100001041085241544566
:1028C0005F524C4C5F0000000000000000DFF0127F
:1028D0009D2D000008524154455F5049545F00004F
:1028E000000000000000E00A139D2D000008524186
:1028F00054455F5941575F0000000000000000E1AF
:1029000024139D2D0000084C4F495445525F4C4103
:10291000545F000000000000E73E139D2D000008FA
:102920004C4F495445525F4C4F4E5F000000000031
:1029300000E858139D2D0000085448525F5241543E
:10294000455F0000000000000000EC72139D2D00A8
:1029500000085448525F414343454C5F000000006B
:10296000000000F18C139D2D0000084F465F524C73
:102970004C5F00000000000000000000EDA6139D69
:102980002D0000084F465F5049545F0000000000D2
:102990000000000000EEC0139D2D000008535442BB
:1029A0005F524C4C5F000000000000000000E2F6A7
:1029B00013C92E0000085354425F5049545F000071
:1029C00000000000000000E30414C92E00000853BA
:1029D00054425F5941575F000000000000000000B2
:1029E000E41214C92E0000085448525F414C545F51
:1029F000000000000000000000EB2014C92E0000C1
:102A000008484C445F4C41545F0000000000000047
:102A10000000E5DA13C92E000008484C445F4C4F13
:102A20004E5F000000000000000000E6E813C92E21
:102A300000000843414D5F0000000000000000005E
:102A400000000000A537074B3400000852454C41F8
:102A5000595F00000000000000000000000D530757
:102A6000C246000008434F4D504153535F000000E1
:102A700000000000000093190F0135000008494EC6
:102A8000535F000000000000000000000000000391
:102A900080104541000008494E41565F000000008B
:102AA0000000000000000000644208DA3F00000857
:102AB00057504E41565F000000000000000000002B
:102AC000006561071A2E0000085352305F000000B5
:102AD000000000000000000000006E9F0BF42B00BF
:102AE00000085352315F00000000000000000000A9
:102AF0000000006F280CF42B000008414852535F7F
:102B00000000000000000000000000009F070D2DE5
:102B10002F0000084D4E545F000000000000000030
:102B20000000000000A6C8062344000008424154EB
:102B3000545F00000000000000000000000024D3EB
:102B4000098333000008474E445F00000000000086
:102B5000000000000000000BFB0F3631000008539E
:102B6000434845445F0000000000000000000000F2
:102B70000C46113C4700000846454E43455F0000A7
:102B8000000000000000000000459C06EE2C000044
:102B900008475053474C495443485F000000000029
:102BA000000046FC104F3E0000084D4F545F0000EF
:102BB00000000000000000000000005ABB0AA6430D
:102BC00000000852434D41505F000000000000002B
:102BD00000000000C78A0B4546000000000000000E
:102BE00000000000000000000000000000000000E5
:102BF0000000000002005241575F53454E53000051
:102C00000000000000000069000000000002014513
:102C100058545F535441540000000000000000006D
:102C20006B0000000000020252435F4348414E0027
:102C30000000000000000000006D00000000000225
:102C4000035241575F4354524C0000000000000003
:102C500000006F00000000000204504F5349544927
:102C60004F4E000000000000000000710000000056
:102C70000002054558545241310000000000000098
:102C80000000000073000000000002064558545286
:102C9000413200000000000000000000007500004C
:102CA0000000000207455854524133000000000064
:102CB0000000000000007700000000000208504102
:102CC00052414D5300000000000000000000007958
:102CD000000000000000FF000000000000000000F5
:102CE00000000000000000000000000000000100E3
:102CF000454E41424C45000000000000000000002D
:102D0000000200000000000101545950450000007D
:102D10000000000000000000000003000000404030
:102D20000102414354494F4E0000000000000000E2
:102D300000000004000000803F0403414C545F4D3C
:102D400041580000000000000000000005000000E5
:102D5000C842040452414449555300000000000099
:102D6000000000000009000000164304054D415218
:102D700047494E00000000000000000000000D0068
:102D80000000004000FF0000000000000000000004
:102D900000000000000000000000000000040050DF
:102DA0000000000000000000000000000000000023
:102DB00000000000000004014900000000000000C5
:102DC00000000000000000000004000000000004FB
:102DD00002440000000000000000000000000000AD
:102DE00000000800000000000203494D41580000A7
:102DF00000000000000000000000000C00000000C7
:102E00000000FF00000000000000000000000000C3
:102E10000000000000000000000004005350454581
:102E2000440000000000000000000000001100004D
:102E300000FA430401524144495553000000000088
:102E40000000000000001D00000048430402535031
:102E50004545445F5550000000000000000000158B
:102E60000000007A43040353504545445F444E003C
:102E700000000000000000001900000016430404D8
:102E80004C4F49545F53504545440000000000003A
:102E9000000D000000FA430405414343454C000087
:102EA0000000000000000000000021000000C842F7
:102EB00000FF000000000000000000000000000013
:102EC00000000000000000000004005000000000AE
:102ED00000000000000000000000000000000000F2
:102EE0000000040149000000000000000000000094
:102EF00000000000000400000000000202494D41F3
:102F00005800000000000000000000000000080061
:102F10000000000000FF00000000000000000000B2
:102F20000000000000000000000000000004024754
:102F300050535F4741494E00000000000000000070
:102F400024000000803F01034750535F5553450064
:102F50000000000000000000002C000000803F0482
:102F6000045941575F5000000000000000000000BD
:102F700000001C00CDCC4C3E040552505F500000B8
:102F800000000000000000000000002000CDCC4C3C
:102F90003E010657494E445F4D4158000000000075
:102FA000000000002D000000000005085452494DAB
:102FB000000000000000000000000000003E0000D3
:102FC00000000001094F5249454E544154494F4EAB
:102FD0000000000000002E0000000000040A434F23
:102FE0004D505F42455441000000000000000028A1
:102FF00000CDCCCC3D010B4750535F4D494E534162
:1030000054530000000000002F000000C040010CDD
:103010004750535F44454C415900000000000000F8
:103020000030000000004000FF0000000000000031
:103030000000000000000000000000000000000090
:1030400050414E49433A2041505F4261726F3A3AD3
:103050007265616420756E737563636573736675FD
:103060006C20666F72206D6F7265207468616E20CF
:103070003530306D7320696E2041505F4261726F50
:103080003A3A63616C696272617465205B335D0D0D
:103090000A0050414E49433A2041505F4261726FED
:1030A0003A3A7265616420756E7375636365737314
:1030B00066756C20666F72206D6F72652074686132
:1030C0006E203530306D7320696E2041505F426153
:1030D000726F3A3A63616C696272617465205B3247
:1030E0005D0D0A0050414E49433A2041505F426114
:1030F000726F3A3A7265616420756E7375636365C9
:10310000737366756C20666F72206D6F72652074C4
:1031100068616E203530306D7320696E2041505FDC
:103120004261726F3A3A63616C69627261746520E0
:103130005B315D0D0A0004024142535F505245531A
:103140005300000000000000000C0000000000041C
:103150000354454D50000000000000000000000036
:1031600000000800000000000104414C545F4F467D
:10317000465345540000000000000010000000000D
:103180000000FF0000000000000000000000000040
:103190000000000000000000000050414E49433A8A
:1031A0002041505F4261726F5F4D5335363131209F
:1031B000746F6F6B206D6F7265207468616E203163
:1031C0003030306D7320746F20696E697469616C82
:1031D000697A650050414E49433A2041505F42614F
:1031E000726F5F4D53353631313A206661696C65D7
:1031F0006420746F2074616B652073657269616C03
:103200002073656D6170686F726520666F722069EA
:103210006E69740050414E49433A2041505F42610B
:10322000726F5F4D53353631313A204E554C4C203C
:1032300073657269616C20647269766572005041D1
:103240004E49433A206661696C656420746F20744E
:10325000616B65205F6932635F73656D203130306B
:103260002074696D657320696E206120726F772C00
:1032700020696E2041505F4261726F5F4D53353659
:1032800031313A3A5F7570646174650050414E495E
:10329000433A2041505F4261726F5F4D5335363182
:1032A0003120646964206E6F7420676574207661D4
:1032B0006C6964204932432073656D617068726F78
:1032C00065210050414E49433A206661696C65644E
:1032D00020746F2074616B65205F7370695F736524
:1032E0006D203130302074696D657320696E206106
:1032F00020726F772C20696E2041505F4261726F9F
:103300005F4D53353631313A3A5F7570646174659B
:103310000050414E49433A2041505F4261726F5F15
:103320004D533536313120646964206E6F742067E7
:1033300065742076616C6964205350492073656D13
:10334000617068726F65210050414E49433A2041D7
:10335000505F4261726F5F4D533536313120646981
:1033600064206E6F74206765742076616C696420D8
:103370005350492064657669636520647269766597
:1033800072210001004D4F4E49544F520000000081
:103390000000000000000000000000000101564F86
:1033A0004C545F50494E0000000000000000000136
:1033B00000000080BF0102435552525F50494E0049
:1033C00000000000000000000200000080BF0403B5
:1033D000564F4C545F4D554C540000000000000007
:1033E0000003009A9921410404414D505F50455219
:1033F000564F4C54000000000000070000008841B8
:103400000405414D505F4F464653455400000000AF
:103410000000000B00000000000306434150414340
:103420004954590000000000000000000F00004057
:103430004E4500FF000000000000000000000000FA
:10344000000000000000000000000001005452498C
:1034500047475F545950450000000000000000003D
:103460000000000001014455524154494F4E0000F4
:103470000000000000000001000000204102025393
:103480004552564F5F4F4E00000000000000000004
:1034900002000080A2440203534552564F5F4F463C
:1034A0004600000000000000000400008089440481
:1034B0000454524947475F444953540000000000F8
:1034C000000009000000000000FF000000000000F4
:1034D00000000000000000000000000000000000EC
:1034E000004661696C656420746F206765742048CC
:1034F0004D43353834332073656D6170686F726584
:103500000005014F465300000000000000000000CD
:1035100000000000110000000000040244454300C8
:10352000000000000000000000000000001D00007E
:1035300000000001034C4541524E00000000000015
:103540000000000000000F000000803F0104555300
:103550004500000000000000000000000000002105
:10356000000000803F01054155544F444543000091
:10357000000000000000000022000000803F010663
:103580004D4F5443540000000000000000000000B4
:10359000009E000000000005074D4F540000000091
:1035A000000000000000000000009F00000000007C
:1035B00001084F5249454E54000000000000000031
:1035C0000000001000000000000109455854455259
:1035D0004E414C00000000000000000023000000ED
:1035E000000000FF000000000000000000000000DC
:1035F000000000000000000000000009736C6F7004
:10360000653A0009793A00783A0043757276653A6E
:103610000009736C6F70653A0009793A00783A00D6
:1036200043757276653A0009736C6F70653A0009EC
:10363000793A00783A0043757276653A0009736CFE
:103640006F70653A0009793A00783A0043757276EE
:10365000653A0009736C6F70653A0009793A007831
:103660003A0043757276653A0009736C6F70653A7B
:103670000009793A00783A0043757276653A00801D
:10368000114011407132733433321312113211125E
:10369000933413145352310021030406080B2D0AEE
:1036A000090705040241C011C0511253547312118D
:1036B00012515273147332310021020405060708B7
:1036C0000908060706240302010200012001201157
:1036D000C00111003132137413143312F112D312DA
:1036E000510001022325060746442342210001E040
:1036F000A0313213B43311121100112011005233D2
:1037000012133211200122248504230402034241B2
:103710000001E0A051121413151315341332514057
:103720000120115213323100012223040504050443
:1037300023010382612001E011801132135415141A
:1037400033323140210201003172314102234423DE
:1037500002012201220102614001A01180511214D4
:1037600013341514331231400102010302012052B7
:10377000111220212243042241022102A10001E072
:1037800020114051537413321140210203020302ED
:1037900001001112113200114122232221004102A5
:1037A000A1800160116011001132337413121140B5
:1037B00001620302032131121112114001020102C0
:1037C000030201000100E121E0A011201211733475
:1037D0003331200162036240121112110011010005
:1037E000010201220001200100E1C001001180114D
:1037F0000012111312141334522001E2022120315D
:1038000012110011000100210201000140210002FB
:10381000410001E06011401112111312141314132E
:103820003211002122034201022100010011001285
:1038300011001120010041600100C1000140112070
:10384000016011405112131213143312310001425E
:10385000032201022100014011003100110001008A
:10386000010001A0E10001A001801120315293125A
:10387000110021C22100214031001120110001005E
:1038800001E0E16001E01100117273123100214288
:1038900003010201022021401100112011600140AA
:1038A0001160010001022102000120014001A0512C
:1038B0003213125332112001020182210021000132
:1038C00000110031E000110011602100010201022D
:1038D0000101002120010001601100115213121496
:1038E0001352110041820102000100214011001118
:1038F0000011A011003100112081220101000201FC
:10390000002100016011005213121314133231010F
:1039100000020122014201002100010001112011D9
:103920000011201140710011400102210201020129
:1039300000210221000100010011001211123312B6
:103940003413321120010201420122010041000121
:10395000601120110011001100511231206102018B
:10396000220200020102812011001211733413326D
:10397000110041020182010061000180110011006B
:103980009132314021420102020062614011521421
:103990001354333100418201220001020041000131
:1039A0006091121152512001220103010202008292
:1039B00061005133541514333100210201220342B6
:1039C0004102A180319213323100412203020103EE
:1039D000002203220102014011123395333101000C
:1039E0002201034203222122010261000111001180
:1039F0005213125312310041220322030023020307
:103A00000201022120321314161517161533112046
:103A1000016203020302032201A241401112531466
:103A20001314133211010002010203020302020007
:103A300002230203222120321416371817151312FD
:103A400011002122030243024301030203822120C9
:103A500011121314153415143211000162230203DC
:103A60000043020342012012131518193A171513C7
:103A70001100210203026304E302030203020102B4
:103A80004012131415171516341220212243020375
:103A900000A3220100111215181C1E1D1916131166
:103AA0000002010302030423040324030443042348
:103AB000040302034220111214151718361513318E
:103AC00021020302230203241E191512100E0C0BEF
:103AD0000A0909090808080706060504040403047E
:103AE000040400000000000000000000272621233D
:103AF000252325242722292A2A1C27282B3332274D
:103B000025222C3331303700000000000000000077
:103B10000000000001FFFFE000000000000001FFC6
:103B2000FFF000000000000001FFFFF800000000AF
:103B3000000001FFFFFE00000000000003FFFFFF88
:103B400000000000000003FFFFFFF0000000000085
:103B50000FFFFFFFFE00000003FFFFFC000007FC5B
:103B600000007FFFFFFC000000000000001FFFFEC0
:103B7000000000000096918C87827D78736E6964E6
:103B80005F5A55504B46413C37322D28231E19149D
:103B90000F0A050004090E13181D22272C31363B8D
:103BA00040454A4F54595E63686D72777C81868BBD
:103BB00090959A9FA4A9AEB3AFAAA5A09B968F8912
:103BC000837E78736E69645F5A55504B47423E3925
:103BD00035302C27231F1B16120E09050103070B76
:103BE0001014191D22262B2F34393D42474C5156B3
:103BF0005B60656B70757B80868C92979DA3A9AF87
:103C0000B2ACA6A09A948F827C76706B65605C578C
:103C1000524E4A46413D3936322E2A26221F1B1764
:103C200013100C08040102060A0E12161A1E222690
:103C30002B2F33383D41464B4F54595E64696F74A6
:103C40007A80878D949BA2AAB1AEA69F9790898215
:103C50006F68635E5955514D4946423F3C38353295
:103C60002E2B2824211E1A1714100D0A06030003F8
:103C700006090D1014181C2024282C3034393D411D
:103C8000464A4F54585D62676D737980878F98A25A
:103C9000ACB0A59A90867D766F55514D4A47444108
:103CA0003F3C3A383533312E2B292623201D1A1755
:103CB00013100D0A070401010306090D1013171A4A
:103CC0001E22262A2E32363A3E42464A4E53575B31
:103CD0005F64696E757C85909FB2A08D7D70676012
:103CE0005A553E3C3A393736343332302F2E2C2A4F
:103CF000292724221F1C191613100D0A070402007D
:103D00000305080A0D1013161A1D2125292D31351A
:103D1000383C4043464A4D505356595B5E61656995
:103D20006F826D544D4A474442403E2E2E2D2C2C1E
:103D30002B2A2A2929282726252423211F1C1A1744
:103D400014100D0A07040101030507090C0E1013D6
:103D5000161A1D2124282C3033373A3D404244475F
:103D6000484A4A4B4A48443D3019021621282B2D17
:103D70002E2F2E2E06090C0F121517191B1C1B189F
:103D800011040E2231383C3C3C3A3835322F2B2876
:103D900024201C1915110D09050102060A0E111522
:103DA000181C1F222527292A2B2B29262119110807
:103DB0000004080A0A0A0807040200030616181A73
:103DC0001C1E20211F1712516063625F5D595652FD
:103DD0004E4A46423E3935312C2824201B17130EFB
:103DE0000A060102060A0F13171B1F23262A2D316C
:103DF0003437393C3D3F3F3E3D39352F28211C1794
:103E0000151313131416A8ADB2B0ABA6A19C9792CC
:103E10008D88837E79746F6A65605B56514C47422A
:103E20003D38332E29241F1A15100B060103080DE7
:103E300012171C21262B30353A3F44494E53585D0A
:103E400062676C71767B80858A8F94999EA3A801A6
:103E500000454E41424C45000000000000000000BB
:103E6000000003000000803F0401524144495553C3
:103E700000000000000000000000000400000048F6
:103E8000430402414343454C000000000000000091
:103E900000000000080000007A4400FF000000005D
:103EA0000000000000000000000000000000000012
:103EB000000000B56206010300010601124F245004
:103EC0005542582C34312C312C303030332C30309A
:103ED00030312C33383430302C302A32360D0A0051
:103EE0004572726F723A2041505F48414C5F4D50AD
:103EF0004E473A3A415652416E616C6F67496E20A7
:103F00006F7574206F66206368616E6E656C730DEB
:103F10000A00474F494E4720444F574E20464F52C4
:103F20002041205245424F4F540D0A0050414E4906
:103F3000433A207363686564756C65723A3A7379C5
:103F40007374656D5F696E697469616C697A6564C3
:103F50002063616C6C65646D6F7265207468616E5E
:103F6000206F6E63650050414E49433A20415652DE
:103F700053656D6170686F72653A3A74616B652064
:103F8000757365642066726F6D20696E7369646510
:103F90002074696D65722070726F63657373005071
:103FA000414E49433A205350493020777269746535
:103FB00020636F6C6C6973696F6E0050414E4943AA
:103FC0003A2053504930207472616E7366657220D6
:103FD000636F6C6C6973696F6E00040154435F58C2
:103FE0005900000000000000000000000014000064
:103FF000002040040254435F5A000000000000000B
:1040000000000000000065000000A04000FF00006C
:1040100000000000000000000000000000000000A0
:10402000000000000043616C6962726174696F6E28
:10403000204641494C45440A0043616C6962726103
:1040400074696F6E207375636365737366756C0A4C
:10405000005363616C696E673A20252E3266202515
:104060002E326620252E32660A004F66667365740E
:10407000733A20252E326620252E326620252E32D8
:10408000660A004661696C656420746F2067657418
:1040900020494E532073616D706C650A00506C614D
:1040A00063652041504D20255320616E642070725D
:1040B00065737320616E79206B65792E0A006F6ECF
:1040C00020697473204241434B006E6F7365205525
:1040D00050006E6F736520444F574E006F6E20691D
:1040E00074732052494748542073696465006F6EA9
:1040F00020697473204C4546542073696465006CD4
:104100006576656C0020002A00496E697420416361
:1041100063656C000A6779726F20646964206E6F52
:104120007420636F6E76657267653A2064696666AF
:104130003D2566206470730A002A00496E69742068
:104140004779726F00020050524F445543545F4903
:1041500044000000000000002600000000000501EF
:104160004143435343414C00000000000000000065
:104170000028000000000005024143434F4646531B
:1041800000000000000000000000340000000000FB
:1041900005034759524F46465300000000000000F7
:1041A00000000040000000000001044D5055364B57
:1041B0005F46494C54455200000000004C0000008E
:1041C000000000FF000000000000000000000000F0
:1041D00000000000000000000000004661696C65FE
:1041E0006420746F20626F6F74204D5055363030EC
:1041F0003020352074696D6573004D505536303070
:10420000303A20556E61626C6520746F206765746A
:104210002073656D6170686F72650049324320429A
:104220005950415353204D4F4445004661696C65D8
:104230006420746F20626F6F74204D50553630309B
:104240003020352074696D6573004D50553630301F
:10425000303A20556E61626C6520746F206765741A
:104260002073656D6170686F72650050414E4943FF
:104270003A2041505F496E65727469616C53656E96
:10428000736F725F4D5055363030303A3A5F706F11
:104290006C6C5F64617461206661696C6564207434
:1042A0006F2074616B65204932432073656D6170C6
:1042B000686F72652073796E6368726F6E6F757365
:1042C0006C790050414E49433A206661696C6564DF
:1042D00020746F20626F6F74204D5055363030302F
:1042E00020352074696D6573004D5055363030307F
:1042F0002073746172747570206661696C65643ACC
:10430000206E6F206461746120726561647900546D
:10431000696D6564206F75742077616974696E6773
:1043200020666F72207573657220726573706F6E90
:10433000736500256C642E2530376C64002D0020D9
:104340002025530A00436F6D6D616E64733A004916
:104350006E76616C696420636F6D6D616E642C2094
:1043600074797065202768656C70270065786974BA
:104370000068656C700025535D200041505F4D6FF3
:10438000746F72733A206661696C656420746F2083
:10439000637265617465207468726F74746C6520F3
:1043A0006375727665000101544352565F454E4174
:1043B000424C4500000000000040000000803F012A
:1043C00002544352565F4D4944504354000000008C
:1043D00000004100000050420103544352565F4D1B
:1043E000415850435400000000000042000000BA51
:1043F0004202055350494E5F41524D454400000072
:1044000000000000430000008C4200FF000000009C
:10441000000000000000000000000000000000009C
:1044200000000001004D4F44450000000000000066
:1044300000000000000036000000000005015245A9
:1044400054524143540000000000000000000047A7
:10445000000000000005024E45555452414C00003A
:1044600000000000000000005300000000000503F1
:10447000434F4E54524F4C0000000000000000001B
:10448000005F00000000000104535441425F524F9E
:104490004C4C000000000000000033000000000051
:1044A0000105535441425F54494C54000000000040
:1044B0000000003400000000000106535441425F38
:1044C00050414E00000000000000000035000000D8
:1044D0000000010752435F494E5F524F4C4C0000B1
:1044E00000000000003700000000000208414E47B5
:1044F0004D494E5F524F4C000000000000003A0052
:1045000000A08CC50209414E474D41585F524F4CA7
:10451000000000000000003C0000A08C45010A5291
:10452000435F494E5F54494C5400000000000000B6
:10453000380000000000020B414E474D494E5F54C9
:10454000494C000000000000003E0000A08CC502A5
:104550000C414E474D41585F54494C00000000004B
:104560000000400000A08C45010D52435F494E5FA2
:1045700050414E0000000000000000390000000023
:1045800000020E414E474D494E5F50414E00000023
:1045900000000000420000A08CC5020F414E474DB4
:1045A00041585F50414E00000000000000440000F0
:1045B000A08C4501104A535449434B5F535044006B
:1045C00000000000000046000000000000FF0000A6
:1045D00000000000000000000000000000000000DB
:1045E000000000000042616420636F6E76657273A4
:1045F000696F6E207479706520272553270A00554E
:104600006E6B6E6F776E20636F6E76657273696F17
:104610006E20272553270A0025733A2025660A00B5
:1046200025733A20256C640A0025733A2025640A14
:104630000025733A2025640A00454550524F4D200D
:1046400066756C6C000100524F4C4C00000000007D
:10465000000000000000000000000000803F010199
:1046600050495443480000000000000000000000D2
:104670000001000000004001025448524F54544CC5
:104680004500000000000000000003000000404062
:104690000103594157000000000000000000000025
:1046A00000000002000000804000FF000000000049
:1046B00000000000000000000000000000000000FA
:1046C0000000010050494E00000000000000000002
:1046D000000000000000000000384200FF00000061
:1046E00000000000000000000000000000000000CA
:1046F000000000005363686564756C6572206F7616
:10470000657272756E207461736B5B25755D202810
:1047100025752F2575290A005363686564756C65D6
:104720007220736C6970207461736B5B25755D20FA
:104730002825752F25752F2575290A000100444568
:10474000425547000000000000000000000000008B
:10475000000000000000FF0000000000000000005A
:1047600000000000000000000000000000005041B8
:104770004E49433A2044617461466C61736820532A
:104780005049446576696365447269766572207341
:10479000656D6170686F7265206973206E756C6CF1
:1047A0000050414E49433A2044617461466C617344
:1047B000682053504944657669636544726976653B
:1047C00072206E6F7420666F756E64004C6F672088
:1047D00025752C2020202073746172742025752C7F
:1047E000202020656E642025750A000A2575206C3E
:1047F0006F67730A000A4E6F206C6F67730A0A00B6
:104800004E756D50616765733A20257520205061A3
:10481000676553697A653A2025750A004D616E75A2
:1048200066616374757265723A203078253032782B
:104830002020204465766963653A2030782530343D
:10484000780A004E6F2064617461666C6173682041
:10485000696E7365727465640025750A0025752C90
:104860000900444620706167652C206C6F672066E4
:10487000696C6520232C206C6F6720706167653A36
:104880002025752C0900464D542C2025752C2025FB
:10489000752C2025532C2025532C2025530A002C21
:1048A0002000257300257300257300252E32660035
:1048B000252E326600252E326600252E3266002512
:1048C0006600256C7500256C640025750025640064
:1048D00025750025640025532C2000554E4B4E2C89
:1048E0002025750A00327C8900EDD9687700000028
:1048F000590000000000000000D69FDCA81817AA8D
:1049000090437327F6B968EDF4DED409FEE61C1C6B
:1049100084DDE80B992927D6DF8D210F036418EF7A
:10492000EE1EF0B7828200941500F37C00000014A4
:1049300000988F00007F6A00000000000000E7B7C9
:104940003F3600000000000000AF669ED0385DD307
:104950006C20B9EB5D7C7C77040000000000000057
:104960000000000000000000000000000000000047
:1049700000000000000000002AF10F86DBD0BC54CC
:1049800016131586004E44BD7F9A15159001EA490D
:10499000B51653A78AEA00000000000000000000DE
:1049A0000000000000000000000000000000000007
:1049B00000000000000000000000000000000000F7
:1049C00000000000000000000000000000000000E7
:1049D0000000000000000000000000000000CC31DA
:1049E000AA2C532E00080000000000000000000068
:1049F00000000000000000000000304A000001013B
:104A000046554E4354494F4E000000000000000040
:104A1000001D000000000000FF000000000000007A
:104A20000000000000000000000000000000000086
:104A300002004D494E000000000000000000000090
:104A40000000000A000080894402015452494D00D0
:104A50000000000000000000000000000C000080CA
:104A6000BB4402024D41580000000000000000005D
:104A700000000000000E000080ED44010352455686
:104A80000000000000000000000000000000100016
:104A90000000803F0205445A0000000000000000B2
:104AA0000000000000000011000000000000FF00F6
:104AB00000000000000000000000000000000000F6
:104AC0000000000000002C76D888674F0823C1DF63
:104AD000AE59B1B796E5E453C63A51997696E6C217
:104AE0008426898C9B62407C6FFCBC9C9F40BAA54D
:104AF0006FA590055A2A5C936B6C676DC11BE0E44F
:104B00000D47F520E6B5D0ED902E00943577008066
:104B1000841E0000204E000000C833333333986EEB
:104B2000128341EF8D21893BE655CFFEE6DBD18430
:104B30004B38F77C1D90A4BBE4243284725E810064
:104B4000C9F1ECA1E53DDCDFE1E3E6E8EBEDEFF2F6
:104B5000F4F7F9FCFE000305080A0C0F11141618EF
:104B60001B1D202224276E616E00696E6600010203
:104B7000102020080810204010204080020102016F
:104B80000804020101020408102040808040201027
:104B90000804020180040201804020100804020180
:104BA00008040201010204081020408001020408E8
:104BB0001020408040050505050705080808080283
:104BC0000202020A0A0808040404040101010101A6
:104BD0000101010303030303030303040707070C95
:104BE0000C0C0C0C0C0C0C0202020206060606064B
:104BF0000606060B0B0B0B0B0B0B0B050000200026
:104C00002300260029002C002F00320000010000A4
:104C100003010601090100002200250028002B00E5
:104C20002E003100340002010000050108010B01D3
:104C300000002100240027002A002D00300033004E
:104C400001010000040107010A014E414E494E498D
:104C50005459494E46CDCCCC3D0AD7233C17B7D149
:104C60003877CC2B329595E6241FB14F0A000020EF
:104C7000410000C84200401C4620BCBE4CCA1B0E6E
:104C80005AAEC59D74000D941B910D94E4730D9460
:104C9000878C0D94E9230D9487120D94FF890D9450
:104CA000C7670D943C790D94CE990D9405880D94A9
:104CB000C60E0D9430950D94F5230D94ED0B0D94C7
:104CC000A98D0D94241E0D949B1D0D94C41C0D9450
:104CD00054560D94AC160D945B0C0D943B1D0D9425
:104CE000311D0D9445710D9498810D94085D0D94BE
:104CF00027240D94B07C0D94CA2D0D94EC440D9492
:104D000093450D94058A0D94DE160D9425710D942E
:104D100076230D94CA130D94E3420D9415040D945B
:104D2000870E0D94AE0D0D9429440D94B41D0D9471
:104D3000BF0A0D94A11E0D94DD1D0D94D5170D9481
:104D400078550D949D530D94901A0D9459210D94FE
:104D500073730D9461700D94331F0D942A950D9407
:104D600097110D94494B0D94F46F0D947C8B0D9419
:104D7000050F0D94608E0D94921C0D946E570D943A
:104D8000C81C0D949D1E0D943F260D94BD520D948C
:104D9000BA860D9449710D941A530D94B0230D9455
:104DA0004F600D94B5050D94AA840D946F930D94E6
:104DB000B0160D94700E0D94BB230D94A80E0D9497
:104DC00067480D94AA1D0D94F4940D947E540D948F
:104DD000C9530D94E71D0D94240B0D94A01D0D9443
:104DE0008B240D946F490D94191E0D94A3850D9479
:104DF0008B910D948D0E0D94C6520D94443C0D94E0
:104E000019840D9437530D94335F0D940A1E0D943D
:104E100081340D94C7120D9423700D942C340D948D
:104E20009E0E0D947F0F0D94401E0D94F3390D943A
:104E30006C8C0D9442700D94C5020D94BF1D0D94A1
:104E400087880D948D830D948A230D94EE160D940E
:104E50007D130D94558B0D9433710D945B700D94EF
:104E60000A540D942B1F0D9411730D9457230D9418
:104E7000231D0D94B3230D94F13D0D940B880D94D7
:104E800020160D94198C0D94CC540D94A8120D94E9
:104E9000AA860D9445240D948C1D0D946D290D94B6
:104EA0008C0F0D94DA530D94A6020D9452980D9424
:104EB000E5120D94383C0D94327A0D9432340D94F1
:104EC000A40A0D94AD930D9444840D9438890D94E7
:104ED000A51C0D940E1B0D94C04D0D94099A0D94B4
:104EE000C87B0D94315C0D944B1D0D94717E0D9417
:104EF0003C210D94320A0D940C170D94B7160D94A5
:104F00002B130D94A5570D943E670D9488730D9443
:104F1000A18B0D940D210D94441D0D94470E0D94FD
:104F20002D030D94CC200D9490170D94DC0F0D944F
:104F300005830D9448710D949C950D941E680D94F5
:104F4000E8760D94687C0D94B21C0D94FF5E0D9470
:104F5000C82D0D94451D0D94CE1C0D94D41F0D9499
:104F6000AF120D9433950D944E540D94B3490D9496
:104F70000B1D0D94398D0D942B1D0D94EF6F0D9419
:104F80000A180D94AD230D94A30E0D944F710D943A
:104F9000461E0D945D1A0D94338D0D94C92D0D94FC
:104FA00046120D942F440D9466930D9459410D941F
:104FB000305C0D94375C0D9440910D94253C0D941C
:104FC000B4860D94D1360D94E9520D94038E0D9450
:104FD00068270D9488540D94334F0D945E550D94AD
:104FE000F73D0D94CA3C0D940F1E0D94B3160D940D
:104FF000D74E0D94871D0D9481740D94AF8D0D9433
:105000005E230D94190B0D94F11D0D9470230D94D6
:10501000F87F0D94FB1A0D9446710D94981E0D9413
:10502000EC1D0D9458230D94D88F0D94881C0D946D
:10503000953E0D948C2B0D9437550D94B28B0D9499
:10504000971E0D9423220D949E810D94CD160D94E0
:1050500044130D94795F0D94F81E0D94C06A0D945D
:1050600083540D946C330D94F9880D94CE830D9474
:10507000BA1C0D94C38B0D9488250D9463120D9466
:10508000328C0D941B870D9490230D94E80E0D9493
:1050900077930D94F55D0D94B61C0D948F0D0D94C2
:1050A000E11C0D9482250D94C30B0D94D0160D9424
:1050B00058130D94CB270D94D91E0D9454660D945E
:1050C000BF020D94C8130D94A5030D9467520D945F
:1050D000AB030D94001E0D94D4830D943F1D0D94CD
:1050E000ED750D94E21C0D941A0F0D94BD1E0D94D8
:1050F00096770D94E00F0D94927E0D94F48B0D94A1
:10510000831B0D942F640D945D120D94A7100D94C4
:105110004A7C0D94E13F0D9471220D94961D0D94DF
:10512000400B0D949E760D94E5390D944F520D94DD
:10513000B0540D940B730D943F930D94B91D0D94C1
:10514000E1230D94E4210D94C79E0D94C6500D9457
:1051500039180D94610E0D94B6230D94BB730D9404
:1051600011840D94515A0D9457820D94A28F0D9471
:10517000E2540D94BE9A0D94BD5E0D9492210D944F
:105180002F5C0D94C00E0D94618B0D94FE120D9446
:1051900022930D9472330D94F58E0D947E1C0D9414
:1051A0009F510D94AF0A0D94971C0D94A41E0D945D
:1051B000AA530D9470530D9483750D94C8700D947B
:1051C000A06A0D94AC000D9411700D9456950D9439
:1051D000C4130D94246F0D94B81D0D9457120D94A3
:1051E000DB170D94C08C0D942D530D94898B0D9469
:1051F0003E5D0D940D530D9440710D94D81C0D948B
:10520000D21C0D94D52D0D94439A0D94E70B0D945B
:10521000FC600D9482180D9456760D94DF8C0D94DD
:10522000D40A0D9453240D94D91A0D9433030D947C
:10523000C01C0D94940A0D946B5F0D94C7130D94CC
:105240007E4A0D942D1F0D948F870D94891B0D940C
:10525000D6260D94351D0D947F930D9438540D94DE
:1052600004180D940E230D9417850D94E7210D94C9
:1052700000550D94C1230D94760E0D94AD200D9420
:1052800062520D9485240D9419130D94C1740D94DC
:10529000621F0D941B6F0D949B0A0D9467070D946C
:1052A00008230D94141E0D94013A0D94EA930D9465
:1052B000745C0D943B8F0D94C2550D94E6440D948F
:1052C0008C600D94E81C0D94051E0D9481940D9432
:1052D000C4460D9416610D9478430D9407210D94E6
:1052E000DB1F0D941B1B0D940C240D94DD420D94BB
:1052F0005A8E0D94BF5E0D94D90F0D949E440D945B
:1053000090520D9425600D94CB360D94151D0D947F
:105310008D1A0D942D3C0D94A51D0D94A28C0D9409
:10532000B7970D94C91F0D94AF1D0D945F8C0D940C
:10533000D98B0D9492930D945D970D94AC780D9448
:10534000073A0D940A480D94F40A0D9445550D94AE
:10535000FD780D9487340D94D8160D945A130D943E
:10536000B8720D941C610D9411850D94A12E0D94AD
:10537000C62E0D94735F0D94FB1D0D94275C0D9448
:1053800083890D94380A0D94CF2D0D947C180D94BB
:1053900049070D94F61D0D9429A50D94CD2D0D945E
:1053A000D1230D94C7040D949B540D949E520D94DB
:1053B0003F180D94601F0D941D550D946E1D0D9496
:1053C00054230D9401300D9462210D94A91E0D9467
:1053D000215C0D9412780D94A81C0D940F1F0D9450
:1053E000B7680D94CB7A0D9407300D94EE520D945E
:1053F00013220D94022B0D94191D0D945A220D9415
:105400001D1D0D94B4900D94BE720D945A530D94BD
:105410000F470D94E73F0D9488120D94911D0D9444
:10542000271D0D941E1E0D94F1180D94BD770D943B
:105430002D5F0D94FF820D9491910D94C2700D9487
:105440008D1C0D944F930D940A860D94F3920D9438
:10545000E1950D9495890D94421C0D94E4230D94CF
:10546000C05A0D94BD540D94CC2E0D94DC1C0D949B
:10547000F9530D94414E0D94B0840D943E3CF7BD0C
:10548000F4F53F276F29DF295EC011241FBECFEF3F
:10549000D1E2DEBFCDBF00E00CBF15E0A0E0B2E07E
:1054A000ECEDF5E503E00BBF02C007900D92A836C6
:1054B000B107D9F716E1A8E6B5E001C01D92A93FF2
:1054C000B107E1F714E5C8E8D4E500E006C022978B
:1054D0000109FE010BBF0F94D4A6CE37D10780E09F
:1054E0000807A9F70E94ACC20D94DDAA0C94000035
:1054F000009739F0019791F48091BD169091BE16F6
:1055000004C08091BF169091C016DC01ED91FC9112
:105510000680F781E02D199597FF089580E090E0CF
:1055200008950895E091FB0FF091FC0F0084F18540
:10553000E02D8BEF9FE019950895A9E1B0E0E3EA33
:10554000FAE20D943EA6962FE9E1BE016F5F7F4F10
:10555000DB01FE2F1D92FA95E9F7F3EAF983F5E9ED
:10556000FA83EB838C839D832E833F8348875987FF
:10557000EA86FB860C871D87AE86BF86C88AD98AD5
:105580008FA198A5A9A5BAA58A8B9B8BAC8BBD8B47
:105590008BA59CA5ADA5BEA58E8B9F8BA88FB98F23
:1055A000E0911E11F0911F110084F185E02D49E179
:1055B00050E08EE191E119956996EAE00D945AA6C2
:1055C000A4E1B0E0E6EEFAE20D9446A6FB01BE01CE
:1055D0006F5F7F4F94E1DB011D929A95E9F793EAA3
:1055E000998395E99A8398E09B83909187119C8396
:1055F0008D8380818E8381818F838281888783815F
:105600009481A581B68189879A87AB87BC8787817A
:105610009085A185B2858D879E87AF87B88B83855E
:105620009485A585B685898B9A8BAB8BBC8BE091D5
:105630001E11F0911F110084F185E02D44E150E02E
:105640008EE191E119956496E2E00D9462A6A1E1E4
:10565000B0E0EDE2FBE20D9446A6BE016F5F7F4F26
:1056600081E1FB0111928A95E9F783EA898385E953
:105670008A8381E08B838091840A9091850A9D833F
:105680008C838091150D9091160D9F838E83809150
:10569000820A9091830A998788878091190D909149
:1056A0001A0D9B878A8780910E1290910F129D8709
:1056B0008C8780911D0D90911E0D9F878E87809104
:1056C000630990916409998B888BE0911E11F09188
:1056D0001F110084F185E02D41E150E08EE191E160
:1056E00019956196E2E00D9462A6A6E0B0E0EBE7C2
:1056F000FBE20D9446A6BE016F5F7F4F96E0FB0173
:1057000011929A95E9F793EA998395E99A8393E040
:105710009B838C8380919E1190919F119E838D839A
:10572000E0911E11F0911F110084F185E02D46E0FB
:1057300050E08EE191E119952696E2E00D9462A683
:10574000ACE1B0E0E6EAFBE20D943AA6FE01319648
:105750003F019CE111929A95E9F793EA998395E9C3
:105760009A839EE09B838C834D835E836F837887CF
:1057700009871A872B873C87CD86DE86EF86F88AD5
:10578000898A9A8AAB8ABC8A8EA59FA5A8A9B9A93D
:105790008D8B9E8BAF8BB88F8AA99BA9ACA9BDA915
:1057A000898F9A8FAB8FBC8FE0911E11F0911F11E2
:1057B0000084F185E02D4CE150E0B3018EE191E1F0
:1057C00019956C96EEE00D9456A6A5E0B0E0EBEED0
:1057D000FBE20D9446A6DE01119695E0FD011192C3
:1057E0009A95E9F793EA998395E99A8393E19B83E4
:1057F0008C836D83E0911E11F0911F110084F1855F
:10580000E02D45E050E0BD018EE191E1199525962E
:10581000E2E00D9462A660911806709119068091DD
:105820001A0690911B066093F0127093F112809308
:10583000F2129093F3122DEC3CEC4CEC5DE30F94E0
:10584000A1A36093F4127093F5128093F6129093D3
:10585000F7128091100690911106A0911206B09156
:1058600013068093F8129093F912A093FA12B09352
:10587000FB1280910C0690910D06A0910E06B0913E
:105880000F068093F6139093F713A093F813B09339
:10589000F913609108067091090680910A069091AB
:1058A0000B0660930A1370930B1380930C13909361
:1058B0000D132DEC3CEC4CEC5DE30F94A1A3609335
:1058C0000E1370930F138093101390931113809104
:1058D000000690910106A0910206B0910306809304
:1058E000121390931313A0931413B0931513809174
:1058F000FC059091FD05A091FE05B091FF058093F8
:10590000041490930514A0930614B0930714E2E9CD
:10591000FBE080818D7F80830895809118069091AF
:105920001906A0911A06B0911B068093F01290936D
:10593000F112A093F212B093F31280911406909199
:105940001506A0911606B09117068093F412909355
:10595000F512A093F612B093F71280911006909171
:105960001106A0911206B09113068093F81290933D
:10597000F912A093FA12B093FB1280910C06909149
:105980000D06A0910E06B0910F068093F61390932A
:10599000F713A093F813B093F91380910806909130
:1059A0000906A0910A06B0910B0680930A13909302
:1059B0000B13A0930C13B0930D13809104069091D8
:1059C0000506A0910606B091070680930E139093EA
:1059D0000F13A0931013B0931113809100069091B0
:1059E0000106A0910206B0910306809312139093D2
:1059F0001313A0931413B09315138091FC05909189
:105A0000FD05A091FE05B091FF05809304149093CD
:105A10000514A0930614B0930714E2E9FBE080811B
:105A20008D7F808308958F929F92AF92BF92CF9285
:105A3000DF92EF92FF928090F8059090F905A09088
:105A4000FA05B090FB0520E030E0A901C501B401E2
:105A50000F94D4A0882309F477C0C090EC05D090AF
:105A6000ED05E090EE05F090EF0520E030E0A901B3
:105A7000C701B6010F94D4A0882309F465C08092B1
:105A8000F0129092F112A092F212B092F312809260
:105A9000F4129092F512A092F612B092F712809141
:105AA000F4059091F505A091F605B091F705809366
:105AB000F8129093F912A093FA12B093FB1280910E
:105AC000F0059091F105A091F205B091F305809356
:105AD000F6139093F713A093F813B093F913C092B1
